{
  "contractName": "EstateAgency",
  "abi": [
    {
      "inputs": [
        {
          "internalType": "address",
          "name": "admin1",
          "type": "address"
        },
        {
          "internalType": "address",
          "name": "admin2",
          "type": "address"
        },
        {
          "internalType": "address",
          "name": "owner1",
          "type": "address"
        },
        {
          "internalType": "address",
          "name": "owner2",
          "type": "address"
        }
      ],
      "stateMutability": "nonpayable",
      "type": "constructor"
    },
    {
      "anonymous": false,
      "inputs": [
        {
          "indexed": true,
          "internalType": "address",
          "name": "receiver",
          "type": "address"
        },
        {
          "indexed": false,
          "internalType": "uint256",
          "name": "amount",
          "type": "uint256"
        }
      ],
      "name": "FundsWithdrawn",
      "type": "event"
    },
    {
      "anonymous": false,
      "inputs": [
        {
          "indexed": true,
          "internalType": "address",
          "name": "propertyAddress",
          "type": "address"
        },
        {
          "indexed": true,
          "internalType": "address",
          "name": "owner",
          "type": "address"
        },
        {
          "indexed": false,
          "internalType": "uint256",
          "name": "totalArea",
          "type": "uint256"
        },
        {
          "indexed": false,
          "internalType": "uint256",
          "name": "usefulArea",
          "type": "uint256"
        }
      ],
      "name": "PropertyRegistered",
      "type": "event"
    },
    {
      "anonymous": false,
      "inputs": [
        {
          "indexed": true,
          "internalType": "address",
          "name": "propertyAddress",
          "type": "address"
        },
        {
          "indexed": true,
          "internalType": "address",
          "name": "renter",
          "type": "address"
        }
      ],
      "name": "RentCancelled",
      "type": "event"
    },
    {
      "anonymous": false,
      "inputs": [
        {
          "indexed": true,
          "internalType": "address",
          "name": "propertyAddress",
          "type": "address"
        },
        {
          "indexed": true,
          "internalType": "address",
          "name": "renter",
          "type": "address"
        },
        {
          "indexed": false,
          "internalType": "uint256",
          "name": "rentAmount",
          "type": "uint256"
        },
        {
          "indexed": false,
          "internalType": "uint256",
          "name": "rentDuration",
          "type": "uint256"
        }
      ],
      "name": "RentConfirmed",
      "type": "event"
    },
    {
      "anonymous": false,
      "inputs": [
        {
          "indexed": true,
          "internalType": "address",
          "name": "propertyAddress",
          "type": "address"
        },
        {
          "indexed": false,
          "internalType": "uint256",
          "name": "rentAmount",
          "type": "uint256"
        },
        {
          "indexed": false,
          "internalType": "uint256",
          "name": "rentDuration",
          "type": "uint256"
        }
      ],
      "name": "RentOffered",
      "type": "event"
    },
    {
      "anonymous": false,
      "inputs": [
        {
          "indexed": true,
          "internalType": "address",
          "name": "user",
          "type": "address"
        },
        {
          "indexed": false,
          "internalType": "bool",
          "name": "isAdmin",
          "type": "bool"
        }
      ],
      "name": "RoleChanged",
      "type": "event"
    },
    {
      "inputs": [
        {
          "internalType": "address",
          "name": "",
          "type": "address"
        }
      ],
      "name": "administrators",
      "outputs": [
        {
          "internalType": "bool",
          "name": "",
          "type": "bool"
        }
      ],
      "stateMutability": "view",
      "type": "function",
      "constant": true
    },
    {
      "inputs": [
        {
          "internalType": "address",
          "name": "",
          "type": "address"
        }
      ],
      "name": "balances",
      "outputs": [
        {
          "internalType": "uint256",
          "name": "",
          "type": "uint256"
        }
      ],
      "stateMutability": "view",
      "type": "function",
      "constant": true
    },
    {
      "inputs": [
        {
          "internalType": "address",
          "name": "",
          "type": "address"
        }
      ],
      "name": "properties",
      "outputs": [
        {
          "internalType": "address",
          "name": "owner",
          "type": "address"
        },
        {
          "internalType": "uint256",
          "name": "totalArea",
          "type": "uint256"
        },
        {
          "internalType": "uint256",
          "name": "usefulArea",
          "type": "uint256"
        },
        {
          "internalType": "uint256",
          "name": "rentAmount",
          "type": "uint256"
        },
        {
          "internalType": "uint256",
          "name": "rentDuration",
          "type": "uint256"
        },
        {
          "internalType": "bool",
          "name": "rented",
          "type": "bool"
        }
      ],
      "stateMutability": "view",
      "type": "function",
      "constant": true
    },
    {
      "inputs": [],
      "name": "checkContract",
      "outputs": [
        {
          "internalType": "string",
          "name": "",
          "type": "string"
        }
      ],
      "stateMutability": "pure",
      "type": "function",
      "constant": true
    },
    {
      "inputs": [
        {
          "internalType": "address",
          "name": "propertyAddress",
          "type": "address"
        },
        {
          "internalType": "uint256",
          "name": "totalArea",
          "type": "uint256"
        },
        {
          "internalType": "uint256",
          "name": "usefulArea",
          "type": "uint256"
        }
      ],
      "name": "registerProperty",
      "outputs": [],
      "stateMutability": "nonpayable",
      "type": "function"
    },
    {
      "inputs": [
        {
          "internalType": "address",
          "name": "propertyAddress",
          "type": "address"
        },
        {
          "internalType": "uint256",
          "name": "rentAmount",
          "type": "uint256"
        },
        {
          "internalType": "uint256",
          "name": "rentDuration",
          "type": "uint256"
        }
      ],
      "name": "offerRent",
      "outputs": [],
      "stateMutability": "nonpayable",
      "type": "function"
    },
    {
      "inputs": [
        {
          "internalType": "address",
          "name": "propertyAddress",
          "type": "address"
        }
      ],
      "name": "confirmRent",
      "outputs": [],
      "stateMutability": "payable",
      "type": "function",
      "payable": true
    },
    {
      "inputs": [
        {
          "internalType": "address",
          "name": "propertyAddress",
          "type": "address"
        }
      ],
      "name": "cancelRentOffer",
      "outputs": [],
      "stateMutability": "nonpayable",
      "type": "function"
    },
    {
      "inputs": [
        {
          "internalType": "uint256",
          "name": "amount",
          "type": "uint256"
        }
      ],
      "name": "withdrawFunds",
      "outputs": [],
      "stateMutability": "nonpayable",
      "type": "function"
    },
    {
      "inputs": [
        {
          "internalType": "address",
          "name": "user",
          "type": "address"
        },
        {
          "internalType": "bool",
          "name": "isAdmin",
          "type": "bool"
        }
      ],
      "name": "changeUserRole",
      "outputs": [],
      "stateMutability": "nonpayable",
      "type": "function"
    },
    {
      "inputs": [],
      "name": "getAllProperties",
      "outputs": [
        {
          "internalType": "address[]",
          "name": "",
          "type": "address[]"
        },
        {
          "internalType": "address[]",
          "name": "",
          "type": "address[]"
        },
        {
          "internalType": "uint256[]",
          "name": "",
          "type": "uint256[]"
        },
        {
          "internalType": "uint256[]",
          "name": "",
          "type": "uint256[]"
        },
        {
          "internalType": "uint256[]",
          "name": "",
          "type": "uint256[]"
        },
        {
          "internalType": "uint256[]",
          "name": "",
          "type": "uint256[]"
        },
        {
          "internalType": "bool[]",
          "name": "",
          "type": "bool[]"
        }
      ],
      "stateMutability": "view",
      "type": "function",
      "constant": true
    }
  ],
  "bytecode": "0x60806040523480156200001157600080fd5b506040516200255e3803806200255e83398181016040528101906200003791906200031b565b60016000808673ffffffffffffffffffffffffffffffffffffffff1673ffffffffffffffffffffffffffffffffffffffff16815260200190815260200160002060006101000a81548160ff02191690831515021790555060016000808573ffffffffffffffffffffffffffffffffffffffff1673ffffffffffffffffffffffffffffffffffffffff16815260200190815260200160002060006101000a81548160ff02191690831515021790555060008060008473ffffffffffffffffffffffffffffffffffffffff1673ffffffffffffffffffffffffffffffffffffffff16815260200190815260200160002060006101000a81548160ff02191690831515021790555060008060008373ffffffffffffffffffffffffffffffffffffffff1673ffffffffffffffffffffffffffffffffffffffff16815260200190815260200160002060006101000a81548160ff0219169083151502179055506064600260008673ffffffffffffffffffffffffffffffffffffffff1673ffffffffffffffffffffffffffffffffffffffff168152602001908152602001600020819055506064600260008573ffffffffffffffffffffffffffffffffffffffff1673ffffffffffffffffffffffffffffffffffffffff168152602001908152602001600020819055506064600260008473ffffffffffffffffffffffffffffffffffffffff1673ffffffffffffffffffffffffffffffffffffffff168152602001908152602001600020819055506064600260008373ffffffffffffffffffffffffffffffffffffffff1673ffffffffffffffffffffffffffffffffffffffff16815260200190815260200160002081905550505050506200038d565b600080fd5b600073ffffffffffffffffffffffffffffffffffffffff82169050919050565b6000620002e382620002b6565b9050919050565b620002f581620002d6565b81146200030157600080fd5b50565b6000815190506200031581620002ea565b92915050565b60008060008060808587031215620003385762000337620002b1565b5b6000620003488782880162000304565b94505060206200035b8782880162000304565b93505060406200036e8782880162000304565b9250506060620003818782880162000304565b91505092959194509250565b6121c1806200039d6000396000f3fe60806040526004361061009c5760003560e01c80634202ca2c116100645780634202ca2c146101a55780636c36a105146101ce57806376be1585146101f7578063c110ae0914610234578063d6e7301d14610250578063f9441580146102795761009c565b8063155dd5ee146100a157806325ec77d7146100ca57806327e235e31461010c578063338116b0146101495780633d51402c14610174575b600080fd5b3480156100ad57600080fd5b506100c860048036038101906100c39190611680565b6102a2565b005b3480156100d657600080fd5b506100f160048036038101906100ec919061170b565b610418565b60405161010396959493929190611771565b60405180910390f35b34801561011857600080fd5b50610133600480360381019061012e919061170b565b610481565b60405161014091906117d2565b60405180910390f35b34801561015557600080fd5b5061015e610499565b60405161016b919061187d565b60405180910390f35b34801561018057600080fd5b506101896104d6565b60405161019c9796959493929190611ad9565b60405180910390f35b3480156101b157600080fd5b506101cc60048036038101906101c79190611b79565b610a06565b005b3480156101da57600080fd5b506101f560048036038101906101f0919061170b565b610ce7565b005b34801561020357600080fd5b5061021e6004803603810190610219919061170b565b610f90565b60405161022b9190611bcc565b60405180910390f35b61024e6004803603810190610249919061170b565b610fb0565b005b34801561025c57600080fd5b5061027760048036038101906102729190611b79565b611274565b005b34801561028557600080fd5b506102a0600480360381019061029b9190611c13565b611512565b005b80600260003373ffffffffffffffffffffffffffffffffffffffff1673ffffffffffffffffffffffffffffffffffffffff168152602001908152602001600020541015610324576040517f08c379a000000000000000000000000000000000000000000000000000000000815260040161031b90611c9f565b60405180910390fd5b80600260003373ffffffffffffffffffffffffffffffffffffffff1673ffffffffffffffffffffffffffffffffffffffff16815260200190815260200160002060008282546103739190611cee565b9250508190555060003390508073ffffffffffffffffffffffffffffffffffffffff166108fc839081150290604051600060405180830381858888f193505050501580156103c5573d6000803e3d6000fd5b503373ffffffffffffffffffffffffffffffffffffffff167feaff4b37086828766ad3268786972c0cd24259d4c87a80f9d3963a3c3d999b0d8360405161040c91906117d2565b60405180910390a25050565b60016020528060005260406000206000915090508060000160009054906101000a900473ffffffffffffffffffffffffffffffffffffffff16908060010154908060020154908060030154908060040154908060050160009054906101000a900460ff16905086565b60026020528060005260406000206000915090505481565b60606040518060400160405280601481526020017f436f6e747261637420697320776f726b696e6721000000000000000000000000815250905090565b6060806060806060806060600047905060008167ffffffffffffffff81111561050257610501611d22565b5b6040519080825280602002602001820160405280156105305781602001602082028036833780820191505090505b50905060008267ffffffffffffffff81111561054f5761054e611d22565b5b60405190808252806020026020018201604052801561057d5781602001602082028036833780820191505090505b50905060008367ffffffffffffffff81111561059c5761059b611d22565b5b6040519080825280602002602001820160405280156105ca5781602001602082028036833780820191505090505b50905060008467ffffffffffffffff8111156105e9576105e8611d22565b5b6040519080825280602002602001820160405280156106175781602001602082028036833780820191505090505b50905060008567ffffffffffffffff81111561063657610635611d22565b5b6040519080825280602002602001820160405280156106645781602001602082028036833780820191505090505b50905060008667ffffffffffffffff81111561068357610682611d22565b5b6040519080825280602002602001820160405280156106b15781602001602082028036833780820191505090505b50905060008767ffffffffffffffff8111156106d0576106cf611d22565b5b6040519080825280602002602001820160405280156106fe5781602001602082028036833780820191505090505b5090506000805b898110156109de57600073ffffffffffffffffffffffffffffffffffffffff16600160008b848151811061073c5761073b611d51565b5b602002602001015173ffffffffffffffffffffffffffffffffffffffff1673ffffffffffffffffffffffffffffffffffffffff16815260200190815260200160002060000160009054906101000a900473ffffffffffffffffffffffffffffffffffffffff1673ffffffffffffffffffffffffffffffffffffffff16146109cb576000600160008b84815181106107d6576107d5611d51565b5b602002602001015173ffffffffffffffffffffffffffffffffffffffff1673ffffffffffffffffffffffffffffffffffffffff168152602001908152602001600020905089828151811061082d5761082c611d51565b5b60200260200101518a848151811061084857610847611d51565b5b602002602001019073ffffffffffffffffffffffffffffffffffffffff16908173ffffffffffffffffffffffffffffffffffffffff16815250508060000160009054906101000a900473ffffffffffffffffffffffffffffffffffffffff168984815181106108ba576108b9611d51565b5b602002602001019073ffffffffffffffffffffffffffffffffffffffff16908173ffffffffffffffffffffffffffffffffffffffff1681525050806001015488848151811061090c5761090b611d51565b5b60200260200101818152505080600201548784815181106109305761092f611d51565b5b602002602001018181525050806003015486848151811061095457610953611d51565b5b602002602001018181525050806004015485848151811061097857610977611d51565b5b6020026020010181815250508060050160009054906101000a900460ff168484815181106109a9576109a8611d51565b5b60200260200101901515908115158152505082806109c690611d80565b935050505b80806109d690611d80565b915050610705565b50878787878787879f509f509f509f509f509f509f5050505050505050505090919293949596565b6000803373ffffffffffffffffffffffffffffffffffffffff1673ffffffffffffffffffffffffffffffffffffffff16815260200190815260200160002060009054906101000a900460ff16610a91576040517f08c379a0000000000000000000000000000000000000000000000000000000008152600401610a8890611e3a565b60405180910390fd5b600073ffffffffffffffffffffffffffffffffffffffff16600160008573ffffffffffffffffffffffffffffffffffffffff1673ffffffffffffffffffffffffffffffffffffffff16815260200190815260200160002060000160009054906101000a900473ffffffffffffffffffffffffffffffffffffffff1673ffffffffffffffffffffffffffffffffffffffff1614610b62576040517f08c379a0000000000000000000000000000000000000000000000000000000008152600401610b5990611ea6565b60405180910390fd5b6040518060c001604052803373ffffffffffffffffffffffffffffffffffffffff168152602001838152602001828152602001600081526020016000815260200160001515815250600160008573ffffffffffffffffffffffffffffffffffffffff1673ffffffffffffffffffffffffffffffffffffffff16815260200190815260200160002060008201518160000160006101000a81548173ffffffffffffffffffffffffffffffffffffffff021916908373ffffffffffffffffffffffffffffffffffffffff1602179055506020820151816001015560408201518160020155606082015181600301556080820151816004015560a08201518160050160006101000a81548160ff0219169083151502179055509050503373ffffffffffffffffffffffffffffffffffffffff168373ffffffffffffffffffffffffffffffffffffffff167f8f204b0ecfffe166632e61e14d430dd7c49404debbde00c5d8356ed196ce5e5e8484604051610cda929190611ec6565b60405180910390a3505050565b803373ffffffffffffffffffffffffffffffffffffffff16600160008373ffffffffffffffffffffffffffffffffffffffff1673ffffffffffffffffffffffffffffffffffffffff16815260200190815260200160002060000160009054906101000a900473ffffffffffffffffffffffffffffffffffffffff1673ffffffffffffffffffffffffffffffffffffffff1614610db8576040517f08c379a0000000000000000000000000000000000000000000000000000000008152600401610daf90611f61565b60405180910390fd5b600160008373ffffffffffffffffffffffffffffffffffffffff1673ffffffffffffffffffffffffffffffffffffffff16815260200190815260200160002060050160009054906101000a900460ff16610e47576040517f08c379a0000000000000000000000000000000000000000000000000000000008152600401610e3e90611fcd565b60405180910390fd5b6000600160008473ffffffffffffffffffffffffffffffffffffffff1673ffffffffffffffffffffffffffffffffffffffff168152602001908152602001600020600301819055506000600160008473ffffffffffffffffffffffffffffffffffffffff1673ffffffffffffffffffffffffffffffffffffffff168152602001908152602001600020600401819055506000600160008473ffffffffffffffffffffffffffffffffffffffff1673ffffffffffffffffffffffffffffffffffffffff16815260200190815260200160002060050160006101000a81548160ff0219169083151502179055503373ffffffffffffffffffffffffffffffffffffffff168273ffffffffffffffffffffffffffffffffffffffff167fa5c5d25028c154bafde38f2e1b63a731d3fd9b16e8be227d4e1a1a0891a78bda60405160405180910390a35050565b60006020528060005260406000206000915054906101000a900460ff1681565b600073ffffffffffffffffffffffffffffffffffffffff16600160008373ffffffffffffffffffffffffffffffffffffffff1673ffffffffffffffffffffffffffffffffffffffff16815260200190815260200160002060000160009054906101000a900473ffffffffffffffffffffffffffffffffffffffff1673ffffffffffffffffffffffffffffffffffffffff1603611081576040517f08c379a000000000000000000000000000000000000000000000000000000000815260040161107890612039565b60405180910390fd5b600160008273ffffffffffffffffffffffffffffffffffffffff1673ffffffffffffffffffffffffffffffffffffffff16815260200190815260200160002060050160009054906101000a900460ff16611110576040517f08c379a0000000000000000000000000000000000000000000000000000000008152600401611107906120cb565b60405180910390fd5b3460026000600160008573ffffffffffffffffffffffffffffffffffffffff1673ffffffffffffffffffffffffffffffffffffffff16815260200190815260200160002060000160009054906101000a900473ffffffffffffffffffffffffffffffffffffffff1673ffffffffffffffffffffffffffffffffffffffff1673ffffffffffffffffffffffffffffffffffffffff16815260200190815260200160002060008282546111c191906120eb565b925050819055503373ffffffffffffffffffffffffffffffffffffffff168173ffffffffffffffffffffffffffffffffffffffff167fc578616c82bd76d0d4e2c6e4d21c1e5511dfcac2a470e08822370f72605ca04034600160008673ffffffffffffffffffffffffffffffffffffffff1673ffffffffffffffffffffffffffffffffffffffff16815260200190815260200160002060040154604051611269929190611ec6565b60405180910390a350565b600073ffffffffffffffffffffffffffffffffffffffff16600160008573ffffffffffffffffffffffffffffffffffffffff1673ffffffffffffffffffffffffffffffffffffffff16815260200190815260200160002060000160009054906101000a900473ffffffffffffffffffffffffffffffffffffffff1673ffffffffffffffffffffffffffffffffffffffff1603611345576040517f08c379a000000000000000000000000000000000000000000000000000000000815260040161133c90612039565b60405180910390fd5b600160008473ffffffffffffffffffffffffffffffffffffffff1673ffffffffffffffffffffffffffffffffffffffff16815260200190815260200160002060050160009054906101000a900460ff16156113d5576040517f08c379a00000000000000000000000000000000000000000000000000000000081526004016113cc9061216b565b60405180910390fd5b81600160008573ffffffffffffffffffffffffffffffffffffffff1673ffffffffffffffffffffffffffffffffffffffff1681526020019081526020016000206003018190555080600160008573ffffffffffffffffffffffffffffffffffffffff1673ffffffffffffffffffffffffffffffffffffffff1681526020019081526020016000206004018190555060018060008573ffffffffffffffffffffffffffffffffffffffff1673ffffffffffffffffffffffffffffffffffffffff16815260200190815260200160002060050160006101000a81548160ff0219169083151502179055508273ffffffffffffffffffffffffffffffffffffffff167f1fd907342b91f785f4372ccb9a0dc9215f6d72324756f36d52cb5e93348255eb8383604051611505929190611ec6565b60405180910390a2505050565b6000803373ffffffffffffffffffffffffffffffffffffffff1673ffffffffffffffffffffffffffffffffffffffff16815260200190815260200160002060009054906101000a900460ff1661159d576040517f08c379a000000000000000000000000000000000000000000000000000000000815260040161159490611e3a565b60405180910390fd5b806000808473ffffffffffffffffffffffffffffffffffffffff1673ffffffffffffffffffffffffffffffffffffffff16815260200190815260200160002060006101000a81548160ff0219169083151502179055508173ffffffffffffffffffffffffffffffffffffffff167f590f69937de0f94d7654f9f184089382f76863cad698392e7ec986c8371064da826040516116399190611bcc565b60405180910390a25050565b600080fd5b6000819050919050565b61165d8161164a565b811461166857600080fd5b50565b60008135905061167a81611654565b92915050565b60006020828403121561169657611695611645565b5b60006116a48482850161166b565b91505092915050565b600073ffffffffffffffffffffffffffffffffffffffff82169050919050565b60006116d8826116ad565b9050919050565b6116e8816116cd565b81146116f357600080fd5b50565b600081359050611705816116df565b92915050565b60006020828403121561172157611720611645565b5b600061172f848285016116f6565b91505092915050565b611741816116cd565b82525050565b6117508161164a565b82525050565b60008115159050919050565b61176b81611756565b82525050565b600060c0820190506117866000830189611738565b6117936020830188611747565b6117a06040830187611747565b6117ad6060830186611747565b6117ba6080830185611747565b6117c760a0830184611762565b979650505050505050565b60006020820190506117e76000830184611747565b92915050565b600081519050919050565b600082825260208201905092915050565b60005b8381101561182757808201518184015260208101905061180c565b60008484015250505050565b6000601f19601f8301169050919050565b600061184f826117ed565b61185981856117f8565b9350611869818560208601611809565b61187281611833565b840191505092915050565b600060208201905081810360008301526118978184611844565b905092915050565b600081519050919050565b600082825260208201905092915050565b6000819050602082019050919050565b6118d4816116cd565b82525050565b60006118e683836118cb565b60208301905092915050565b6000602082019050919050565b600061190a8261189f565b61191481856118aa565b935061191f836118bb565b8060005b8381101561195057815161193788826118da565b9750611942836118f2565b925050600181019050611923565b5085935050505092915050565b600081519050919050565b600082825260208201905092915050565b6000819050602082019050919050565b6119928161164a565b82525050565b60006119a48383611989565b60208301905092915050565b6000602082019050919050565b60006119c88261195d565b6119d28185611968565b93506119dd83611979565b8060005b83811015611a0e5781516119f58882611998565b9750611a00836119b0565b9250506001810190506119e1565b5085935050505092915050565b600081519050919050565b600082825260208201905092915050565b6000819050602082019050919050565b611a5081611756565b82525050565b6000611a628383611a47565b60208301905092915050565b6000602082019050919050565b6000611a8682611a1b565b611a908185611a26565b9350611a9b83611a37565b8060005b83811015611acc578151611ab38882611a56565b9750611abe83611a6e565b925050600181019050611a9f565b5085935050505092915050565b600060e0820190508181036000830152611af3818a6118ff565b90508181036020830152611b0781896118ff565b90508181036040830152611b1b81886119bd565b90508181036060830152611b2f81876119bd565b90508181036080830152611b4381866119bd565b905081810360a0830152611b5781856119bd565b905081810360c0830152611b6b8184611a7b565b905098975050505050505050565b600080600060608486031215611b9257611b91611645565b5b6000611ba0868287016116f6565b9350506020611bb18682870161166b565b9250506040611bc28682870161166b565b9150509250925092565b6000602082019050611be16000830184611762565b92915050565b611bf081611756565b8114611bfb57600080fd5b50565b600081359050611c0d81611be7565b92915050565b60008060408385031215611c2a57611c29611645565b5b6000611c38858286016116f6565b9250506020611c4985828601611bfe565b9150509250929050565b7f496e73756666696369656e742062616c616e6365000000000000000000000000600082015250565b6000611c896014836117f8565b9150611c9482611c53565b602082019050919050565b60006020820190508181036000830152611cb881611c7c565b9050919050565b7f4e487b7100000000000000000000000000000000000000000000000000000000600052601160045260246000fd5b6000611cf98261164a565b9150611d048361164a565b9250828203905081811115611d1c57611d1b611cbf565b5b92915050565b7f4e487b7100000000000000000000000000000000000000000000000000000000600052604160045260246000fd5b7f4e487b7100000000000000000000000000000000000000000000000000000000600052603260045260246000fd5b6000611d8b8261164a565b91507fffffffffffffffffffffffffffffffffffffffffffffffffffffffffffffffff8203611dbd57611dbc611cbf565b5b600182019050919050565b7f4f6e6c792061646d696e6973747261746f72732063616e20706572666f726d2060008201527f7468697320616374696f6e000000000000000000000000000000000000000000602082015250565b6000611e24602b836117f8565b9150611e2f82611dc8565b604082019050919050565b60006020820190508181036000830152611e5381611e17565b9050919050565b7f50726f706572747920697320616c726561647920726567697374657265640000600082015250565b6000611e90601e836117f8565b9150611e9b82611e5a565b602082019050919050565b60006020820190508181036000830152611ebf81611e83565b9050919050565b6000604082019050611edb6000830185611747565b611ee86020830184611747565b9392505050565b7f4f6e6c7920746865206f776e65722063616e20706572666f726d20746869732060008201527f616374696f6e0000000000000000000000000000000000000000000000000000602082015250565b6000611f4b6026836117f8565b9150611f5682611eef565b604082019050919050565b60006020820190508181036000830152611f7a81611f3e565b9050919050565b7f50726f7065727479206973206e6f742072656e74656400000000000000000000600082015250565b6000611fb76016836117f8565b9150611fc282611f81565b602082019050919050565b60006020820190508181036000830152611fe681611faa565b9050919050565b7f50726f7065727479206973206e6f742072656769737465726564000000000000600082015250565b6000612023601a836117f8565b915061202e82611fed565b602082019050919050565b6000602082019050818103600083015261205281612016565b9050919050565b7f50726f7065727479206973206e6f7420617661696c61626c6520666f7220726560008201527f6e74000000000000000000000000000000000000000000000000000000000000602082015250565b60006120b56022836117f8565b91506120c082612059565b604082019050919050565b600060208201905081810360008301526120e4816120a8565b9050919050565b60006120f68261164a565b91506121018361164a565b925082820190508082111561211957612118611cbf565b5b92915050565b7f50726f706572747920697320616c72656164792072656e746564000000000000600082015250565b6000612155601a836117f8565b91506121608261211f565b602082019050919050565b6000602082019050818103600083015261218481612148565b905091905056fea2646970667358221220293e0a72d52d6029c3713e5aeeb539101b53cfc737f9a4b793537d9e49d0059d64736f6c63430008130033",
  "immutableReferences": {},
  "source": "// SPDX-License-Identifier: MIT\r\npragma solidity >=0.4.22 <0.9.0;\r\n\r\ncontract EstateAgency {\r\n\r\n    struct Property {\r\n        address owner;\r\n        uint totalArea;\r\n        uint usefulArea;\r\n        uint rentAmount;\r\n        uint rentDuration;\r\n        bool rented;\r\n    }\r\n\r\n    mapping(address => bool) public administrators;\r\n    mapping(address => Property) public properties;\r\n    mapping(address => uint) public balances;\r\n\r\n    event PropertyRegistered(address indexed propertyAddress, address indexed owner, uint totalArea, uint usefulArea);\r\n    event RentOffered(address indexed propertyAddress, uint rentAmount, uint rentDuration);\r\n    event RentConfirmed(address indexed propertyAddress, address indexed renter, uint rentAmount, uint rentDuration);\r\n    event RentCancelled(address indexed propertyAddress, address indexed renter);\r\n    event FundsWithdrawn(address indexed receiver, uint amount);\r\n    event RoleChanged(address indexed user, bool isAdmin);\r\n\r\n    constructor(address admin1, address admin2, address owner1, address owner2)  {\r\n        administrators[admin1] = true;\r\n        administrators[admin2] = true;\r\n        administrators[owner1] = false;\r\n        administrators[owner2] = false;\r\n        balances[admin1] = 100;\r\n        balances[admin2] = 100;\r\n        balances[owner1] = 100;\r\n        balances[owner2] = 100;\r\n    }\r\n\r\n\r\n    modifier onlyAdmin() {\r\n        require(administrators[msg.sender], \"Only administrators can perform this action\");\r\n        _;\r\n    }\r\n\r\n    modifier onlyOwner(address propertyAddress) {\r\n        require(properties[propertyAddress].owner == msg.sender, \"Only the owner can perform this action\");\r\n        _;\r\n    }\r\n\r\n\r\n    function checkContract() public pure returns (string memory) {\r\n        return \"Contract is working!\";\r\n    }\r\n\r\n    function registerProperty(address propertyAddress, uint totalArea, uint usefulArea) public onlyAdmin {\r\n        require(properties[propertyAddress].owner == address(0), \"Property is already registered\");\r\n        properties[propertyAddress] = Property(msg.sender, totalArea, usefulArea, 0, 0, false);\r\n        emit PropertyRegistered(propertyAddress, msg.sender, totalArea, usefulArea);\r\n    }\r\n\r\n    function offerRent(address propertyAddress, uint rentAmount, uint rentDuration) public {\r\n        require(properties[propertyAddress].owner != address(0), \"Property is not registered\");\r\n        require(!properties[propertyAddress].rented, \"Property is already rented\");\r\n        properties[propertyAddress].rentAmount = rentAmount;\r\n        properties[propertyAddress].rentDuration = rentDuration;\r\n        properties[propertyAddress].rented = true;\r\n        emit RentOffered(propertyAddress, rentAmount, rentDuration);\r\n    }\r\n\r\n    function confirmRent(address propertyAddress) public payable {\r\n        require(properties[propertyAddress].owner != address(0), \"Property is not registered\");\r\n        require(properties[propertyAddress].rented, \"Property is not available for rent\");\r\n        balances[properties[propertyAddress].owner] += msg.value;\r\n        emit RentConfirmed(propertyAddress, msg.sender, msg.value, properties[propertyAddress].rentDuration);\r\n    }\r\n\r\n    function cancelRentOffer(address propertyAddress) public onlyOwner(propertyAddress) {\r\n        require(properties[propertyAddress].rented, \"Property is not rented\");\r\n        properties[propertyAddress].rentAmount = 0;\r\n        properties[propertyAddress].rentDuration = 0;\r\n        properties[propertyAddress].rented = false;\r\n        emit RentCancelled(propertyAddress, msg.sender);\r\n    }\r\n\r\n    function withdrawFunds(uint amount) public {\r\n        require(balances[msg.sender] >= amount, \"Insufficient balance\");\r\n        balances[msg.sender] -= amount;\r\n        address payable receiver = payable(msg.sender);\r\n        receiver.transfer(amount);\r\n        emit FundsWithdrawn(msg.sender, amount);\r\n    }\r\n\r\n    function changeUserRole(address user, bool isAdmin) public onlyAdmin {\r\n        administrators[user] = isAdmin;\r\n        emit RoleChanged(user, isAdmin);\r\n    }\r\n\r\n    function getAllProperties() public view returns (address[] memory, address[] memory, uint[] memory, uint[] memory, uint[] memory, uint[] memory, bool[] memory) {\r\n        uint length = address(this).balance;\r\n        address[] memory propertyAddresses = new address[](length);\r\n        address[] memory owners = new address[](length);\r\n        uint[] memory totalAreas = new uint[](length);\r\n        uint[] memory usefulAreas = new uint[](length);\r\n        uint[] memory rentAmounts = new uint[](length);\r\n        uint[] memory rentDurations = new uint[](length);\r\n        bool[] memory rentedStatuses = new bool[](length);\r\n\r\n        uint index = 0;\r\n        for (uint i = 0; i < length; i++) {\r\n            if (properties[propertyAddresses[i]].owner != address(0)) {\r\n                Property storage property = properties[propertyAddresses[i]];\r\n                propertyAddresses[index] = propertyAddresses[i];\r\n                owners[index] = property.owner;\r\n                totalAreas[index] = property.totalArea;\r\n                usefulAreas[index] = property.usefulArea;\r\n                rentAmounts[index] = property.rentAmount;\r\n                rentDurations[index] = property.rentDuration;\r\n                rentedStatuses[index] = property.rented;\r\n                index++;\r\n            }\r\n        }\r\n\r\n        return (propertyAddresses, owners, totalAreas, usefulAreas, rentAmounts, rentDurations, rentedStatuses);\r\n    }\r\n}",
  "sourcePath": "C:\\Users\\catsa\\WebstormProjects\\untitled\\contracts\\EstateAgency.sol",
  "compiler": {
    "name": "solc",
    "version": "0.8.19+commit.7dd6d404.Emscripten.clang"
  },
  "schemaVersion": "3.4.16",
  "updatedAt": "2024-04-02T14:44:13.455Z",
  "networkType": "ethereum",
  "devdoc": {
    "kind": "dev",
    "methods": {},
    "version": 1
  },
  "userdoc": {
    "kind": "user",
    "methods": {},
    "version": 1
  }
}