{
  "contractName": "EstateAgency",
  "abi": [
    {
      "inputs": [
        {
          "internalType": "address",
          "name": "admin1",
          "type": "address"
        },
        {
          "internalType": "address",
          "name": "admin2",
          "type": "address"
        },
        {
          "internalType": "address",
          "name": "owner1",
          "type": "address"
        },
        {
          "internalType": "address",
          "name": "owner2",
          "type": "address"
        }
      ],
      "stateMutability": "nonpayable",
      "type": "constructor"
    },
    {
      "anonymous": false,
      "inputs": [
        {
          "indexed": true,
          "internalType": "address",
          "name": "receiver",
          "type": "address"
        },
        {
          "indexed": false,
          "internalType": "uint256",
          "name": "amount",
          "type": "uint256"
        }
      ],
      "name": "FundsWithdrawn",
      "type": "event"
    },
    {
      "anonymous": false,
      "inputs": [
        {
          "indexed": true,
          "internalType": "address",
          "name": "propertyAddress",
          "type": "address"
        },
        {
          "indexed": false,
          "internalType": "uint256",
          "name": "newTotalArea",
          "type": "uint256"
        },
        {
          "indexed": false,
          "internalType": "uint256",
          "name": "newUsefulArea",
          "type": "uint256"
        }
      ],
      "name": "PropertyAreasUpdated",
      "type": "event"
    },
    {
      "anonymous": false,
      "inputs": [
        {
          "indexed": true,
          "internalType": "address",
          "name": "propertyAddress",
          "type": "address"
        },
        {
          "indexed": true,
          "internalType": "address",
          "name": "previousOwner",
          "type": "address"
        },
        {
          "indexed": true,
          "internalType": "address",
          "name": "newOwner",
          "type": "address"
        }
      ],
      "name": "PropertyOwnerChanged",
      "type": "event"
    },
    {
      "anonymous": false,
      "inputs": [
        {
          "indexed": true,
          "internalType": "address",
          "name": "propertyAddress",
          "type": "address"
        },
        {
          "indexed": true,
          "internalType": "address",
          "name": "owner",
          "type": "address"
        },
        {
          "indexed": false,
          "internalType": "uint256",
          "name": "totalArea",
          "type": "uint256"
        },
        {
          "indexed": false,
          "internalType": "uint256",
          "name": "usefulArea",
          "type": "uint256"
        }
      ],
      "name": "PropertyRegistered",
      "type": "event"
    },
    {
      "anonymous": false,
      "inputs": [
        {
          "indexed": true,
          "internalType": "address",
          "name": "propertyAddress",
          "type": "address"
        },
        {
          "indexed": true,
          "internalType": "address",
          "name": "renter",
          "type": "address"
        }
      ],
      "name": "RentCancelled",
      "type": "event"
    },
    {
      "anonymous": false,
      "inputs": [
        {
          "indexed": true,
          "internalType": "address",
          "name": "propertyAddress",
          "type": "address"
        },
        {
          "indexed": true,
          "internalType": "address",
          "name": "renter",
          "type": "address"
        },
        {
          "indexed": false,
          "internalType": "uint256",
          "name": "rentAmount",
          "type": "uint256"
        },
        {
          "indexed": false,
          "internalType": "uint256",
          "name": "rentDuration",
          "type": "uint256"
        }
      ],
      "name": "RentConfirmed",
      "type": "event"
    },
    {
      "anonymous": false,
      "inputs": [
        {
          "indexed": true,
          "internalType": "address",
          "name": "propertyAddress",
          "type": "address"
        },
        {
          "indexed": false,
          "internalType": "uint256",
          "name": "rentAmount",
          "type": "uint256"
        },
        {
          "indexed": false,
          "internalType": "uint256",
          "name": "rentDuration",
          "type": "uint256"
        }
      ],
      "name": "RentOffered",
      "type": "event"
    },
    {
      "anonymous": false,
      "inputs": [
        {
          "indexed": true,
          "internalType": "address",
          "name": "user",
          "type": "address"
        },
        {
          "indexed": false,
          "internalType": "bool",
          "name": "isAdmin",
          "type": "bool"
        }
      ],
      "name": "RoleChanged",
      "type": "event"
    },
    {
      "inputs": [
        {
          "internalType": "address",
          "name": "",
          "type": "address"
        }
      ],
      "name": "administrators",
      "outputs": [
        {
          "internalType": "bool",
          "name": "",
          "type": "bool"
        }
      ],
      "stateMutability": "view",
      "type": "function"
    },
    {
      "inputs": [
        {
          "internalType": "address",
          "name": "",
          "type": "address"
        }
      ],
      "name": "balances",
      "outputs": [
        {
          "internalType": "uint256",
          "name": "",
          "type": "uint256"
        }
      ],
      "stateMutability": "view",
      "type": "function"
    },
    {
      "inputs": [
        {
          "internalType": "address",
          "name": "",
          "type": "address"
        }
      ],
      "name": "properties",
      "outputs": [
        {
          "internalType": "address",
          "name": "owner",
          "type": "address"
        },
        {
          "internalType": "uint256",
          "name": "totalArea",
          "type": "uint256"
        },
        {
          "internalType": "uint256",
          "name": "usefulArea",
          "type": "uint256"
        },
        {
          "internalType": "uint256",
          "name": "rentAmount",
          "type": "uint256"
        },
        {
          "internalType": "uint256",
          "name": "rentDuration",
          "type": "uint256"
        },
        {
          "internalType": "bool",
          "name": "rented",
          "type": "bool"
        }
      ],
      "stateMutability": "view",
      "type": "function"
    },
    {
      "inputs": [],
      "name": "checkContract",
      "outputs": [
        {
          "internalType": "string",
          "name": "",
          "type": "string"
        }
      ],
      "stateMutability": "pure",
      "type": "function"
    },
    {
      "inputs": [
        {
          "internalType": "address",
          "name": "propertyAddress",
          "type": "address"
        },
        {
          "internalType": "uint256",
          "name": "totalArea",
          "type": "uint256"
        },
        {
          "internalType": "uint256",
          "name": "usefulArea",
          "type": "uint256"
        }
      ],
      "name": "registerProperty",
      "outputs": [],
      "stateMutability": "nonpayable",
      "type": "function"
    },
    {
      "inputs": [
        {
          "internalType": "address",
          "name": "propertyAddress",
          "type": "address"
        },
        {
          "internalType": "uint256",
          "name": "rentAmount",
          "type": "uint256"
        },
        {
          "internalType": "uint256",
          "name": "rentDuration",
          "type": "uint256"
        }
      ],
      "name": "offerRent",
      "outputs": [],
      "stateMutability": "nonpayable",
      "type": "function"
    },
    {
      "inputs": [
        {
          "internalType": "address",
          "name": "propertyAddress",
          "type": "address"
        }
      ],
      "name": "confirmRent",
      "outputs": [],
      "stateMutability": "payable",
      "type": "function"
    },
    {
      "inputs": [
        {
          "internalType": "address",
          "name": "propertyAddress",
          "type": "address"
        }
      ],
      "name": "cancelRentOffer",
      "outputs": [],
      "stateMutability": "nonpayable",
      "type": "function"
    },
    {
      "inputs": [
        {
          "internalType": "uint256",
          "name": "amount",
          "type": "uint256"
        }
      ],
      "name": "withdrawFunds",
      "outputs": [],
      "stateMutability": "nonpayable",
      "type": "function"
    },
    {
      "inputs": [
        {
          "internalType": "address",
          "name": "user",
          "type": "address"
        },
        {
          "internalType": "bool",
          "name": "isAdmin",
          "type": "bool"
        }
      ],
      "name": "changeUserRole",
      "outputs": [],
      "stateMutability": "nonpayable",
      "type": "function"
    },
    {
      "inputs": [
        {
          "internalType": "address",
          "name": "propertyAddress",
          "type": "address"
        },
        {
          "internalType": "address",
          "name": "newOwner",
          "type": "address"
        }
      ],
      "name": "transferOwnership",
      "outputs": [],
      "stateMutability": "nonpayable",
      "type": "function"
    },
    {
      "inputs": [
        {
          "internalType": "address",
          "name": "propertyAddress",
          "type": "address"
        },
        {
          "internalType": "uint256",
          "name": "newRentAmount",
          "type": "uint256"
        }
      ],
      "name": "extendRent",
      "outputs": [],
      "stateMutability": "payable",
      "type": "function"
    },
    {
      "inputs": [
        {
          "internalType": "address",
          "name": "propertyAddress",
          "type": "address"
        }
      ],
      "name": "removeProperty",
      "outputs": [],
      "stateMutability": "nonpayable",
      "type": "function"
    },
    {
      "inputs": [
        {
          "internalType": "address",
          "name": "propertyAddress",
          "type": "address"
        },
        {
          "internalType": "uint256",
          "name": "newTotalArea",
          "type": "uint256"
        },
        {
          "internalType": "uint256",
          "name": "newUsefulArea",
          "type": "uint256"
        }
      ],
      "name": "updatePropertyAreas",
      "outputs": [],
      "stateMutability": "nonpayable",
      "type": "function"
    },
    {
      "inputs": [
        {
          "internalType": "address",
          "name": "account",
          "type": "address"
        }
      ],
      "name": "checkBalance",
      "outputs": [
        {
          "internalType": "uint256",
          "name": "",
          "type": "uint256"
        }
      ],
      "stateMutability": "view",
      "type": "function"
    },
    {
      "inputs": [],
      "name": "getAllProperties",
      "outputs": [
        {
          "internalType": "address[]",
          "name": "",
          "type": "address[]"
        },
        {
          "internalType": "address[]",
          "name": "",
          "type": "address[]"
        },
        {
          "internalType": "uint256[]",
          "name": "",
          "type": "uint256[]"
        },
        {
          "internalType": "uint256[]",
          "name": "",
          "type": "uint256[]"
        },
        {
          "internalType": "uint256[]",
          "name": "",
          "type": "uint256[]"
        },
        {
          "internalType": "uint256[]",
          "name": "",
          "type": "uint256[]"
        },
        {
          "internalType": "bool[]",
          "name": "",
          "type": "bool[]"
        }
      ],
      "stateMutability": "view",
      "type": "function"
    }
  ],
  "bytecode": "0x60806040523480156200001157600080fd5b506040516200303a3803806200303a83398181016040528101906200003791906200031b565b60016000808673ffffffffffffffffffffffffffffffffffffffff1673ffffffffffffffffffffffffffffffffffffffff16815260200190815260200160002060006101000a81548160ff02191690831515021790555060016000808573ffffffffffffffffffffffffffffffffffffffff1673ffffffffffffffffffffffffffffffffffffffff16815260200190815260200160002060006101000a81548160ff02191690831515021790555060008060008473ffffffffffffffffffffffffffffffffffffffff1673ffffffffffffffffffffffffffffffffffffffff16815260200190815260200160002060006101000a81548160ff02191690831515021790555060008060008373ffffffffffffffffffffffffffffffffffffffff1673ffffffffffffffffffffffffffffffffffffffff16815260200190815260200160002060006101000a81548160ff0219169083151502179055506064600260008673ffffffffffffffffffffffffffffffffffffffff1673ffffffffffffffffffffffffffffffffffffffff168152602001908152602001600020819055506064600260008573ffffffffffffffffffffffffffffffffffffffff1673ffffffffffffffffffffffffffffffffffffffff168152602001908152602001600020819055506064600260008473ffffffffffffffffffffffffffffffffffffffff1673ffffffffffffffffffffffffffffffffffffffff168152602001908152602001600020819055506064600260008373ffffffffffffffffffffffffffffffffffffffff1673ffffffffffffffffffffffffffffffffffffffff16815260200190815260200160002081905550505050506200038d565b600080fd5b600073ffffffffffffffffffffffffffffffffffffffff82169050919050565b6000620002e382620002b6565b9050919050565b620002f581620002d6565b81146200030157600080fd5b50565b6000815190506200031581620002ea565b92915050565b60008060008060808587031215620003385762000337620002b1565b5b6000620003488782880162000304565b94505060206200035b8782880162000304565b93505060406200036e8782880162000304565b9250506060620003818782880162000304565b91505092959194509250565b612c9d806200039d6000396000f3fe6080604052600436106100f35760003560e01c80635f5152261161008a578063c110ae0911610059578063c110ae0914610343578063d6e7301d1461035f578063d8e0776714610388578063f9441580146103a4576100f3565b80635f515226146102775780636c36a105146102b45780636d435421146102dd57806376be158514610306576100f3565b80633d51402c116100c65780633d51402c146101cb578063400a9e78146101fc5780634202ca2c14610225578063574385f71461024e576100f3565b8063155dd5ee146100f857806325ec77d71461012157806327e235e314610163578063338116b0146101a0575b600080fd5b34801561010457600080fd5b5061011f600480360381019061011a9190611f4c565b6103cd565b005b34801561012d57600080fd5b5061014860048036038101906101439190611fd7565b610543565b60405161015a9695949392919061203d565b60405180910390f35b34801561016f57600080fd5b5061018a60048036038101906101859190611fd7565b6105ac565b604051610197919061209e565b60405180910390f35b3480156101ac57600080fd5b506101b56105c4565b6040516101c29190612149565b60405180910390f35b3480156101d757600080fd5b506101e0610601565b6040516101f397969594939291906123a5565b60405180910390f35b34801561020857600080fd5b50610223600480360381019061021e9190612445565b610b31565b005b34801561023157600080fd5b5061024c60048036038101906102479190612445565b610ced565b005b34801561025a57600080fd5b5061027560048036038101906102709190611fd7565b610fce565b005b34801561028357600080fd5b5061029e60048036038101906102999190611fd7565b6110f9565b6040516102ab919061209e565b60405180910390f35b3480156102c057600080fd5b506102db60048036038101906102d69190611fd7565b611142565b005b3480156102e957600080fd5b5061030460048036038101906102ff9190612498565b6113eb565b005b34801561031257600080fd5b5061032d60048036038101906103289190611fd7565b611550565b60405161033a91906124d8565b60405180910390f35b61035d60048036038101906103589190611fd7565b611570565b005b34801561036b57600080fd5b5061038660048036038101906103819190612445565b611834565b005b6103a2600480360381019061039d91906124f3565b611ad2565b005b3480156103b057600080fd5b506103cb60048036038101906103c6919061255f565b611dde565b005b80600260003373ffffffffffffffffffffffffffffffffffffffff1673ffffffffffffffffffffffffffffffffffffffff16815260200190815260200160002054101561044f576040517f08c379a0000000000000000000000000000000000000000000000000000000008152600401610446906125eb565b60405180910390fd5b80600260003373ffffffffffffffffffffffffffffffffffffffff1673ffffffffffffffffffffffffffffffffffffffff168152602001908152602001600020600082825461049e919061263a565b9250508190555060003390508073ffffffffffffffffffffffffffffffffffffffff166108fc839081150290604051600060405180830381858888f193505050501580156104f0573d6000803e3d6000fd5b503373ffffffffffffffffffffffffffffffffffffffff167feaff4b37086828766ad3268786972c0cd24259d4c87a80f9d3963a3c3d999b0d83604051610537919061209e565b60405180910390a25050565b60016020528060005260406000206000915090508060000160009054906101000a900473ffffffffffffffffffffffffffffffffffffffff16908060010154908060020154908060030154908060040154908060050160009054906101000a900460ff16905086565b60026020528060005260406000206000915090505481565b60606040518060400160405280601481526020017f436f6e747261637420697320776f726b696e6721000000000000000000000000815250905090565b6060806060806060806060600047905060008167ffffffffffffffff81111561062d5761062c61266e565b5b60405190808252806020026020018201604052801561065b5781602001602082028036833780820191505090505b50905060008267ffffffffffffffff81111561067a5761067961266e565b5b6040519080825280602002602001820160405280156106a85781602001602082028036833780820191505090505b50905060008367ffffffffffffffff8111156106c7576106c661266e565b5b6040519080825280602002602001820160405280156106f55781602001602082028036833780820191505090505b50905060008467ffffffffffffffff8111156107145761071361266e565b5b6040519080825280602002602001820160405280156107425781602001602082028036833780820191505090505b50905060008567ffffffffffffffff8111156107615761076061266e565b5b60405190808252806020026020018201604052801561078f5781602001602082028036833780820191505090505b50905060008667ffffffffffffffff8111156107ae576107ad61266e565b5b6040519080825280602002602001820160405280156107dc5781602001602082028036833780820191505090505b50905060008767ffffffffffffffff8111156107fb576107fa61266e565b5b6040519080825280602002602001820160405280156108295781602001602082028036833780820191505090505b5090506000805b89811015610b0957600073ffffffffffffffffffffffffffffffffffffffff16600160008b84815181106108675761086661269d565b5b602002602001015173ffffffffffffffffffffffffffffffffffffffff1673ffffffffffffffffffffffffffffffffffffffff16815260200190815260200160002060000160009054906101000a900473ffffffffffffffffffffffffffffffffffffffff1673ffffffffffffffffffffffffffffffffffffffff1614610af6576000600160008b84815181106109015761090061269d565b5b602002602001015173ffffffffffffffffffffffffffffffffffffffff1673ffffffffffffffffffffffffffffffffffffffff16815260200190815260200160002090508982815181106109585761095761269d565b5b60200260200101518a84815181106109735761097261269d565b5b602002602001019073ffffffffffffffffffffffffffffffffffffffff16908173ffffffffffffffffffffffffffffffffffffffff16815250508060000160009054906101000a900473ffffffffffffffffffffffffffffffffffffffff168984815181106109e5576109e461269d565b5b602002602001019073ffffffffffffffffffffffffffffffffffffffff16908173ffffffffffffffffffffffffffffffffffffffff16815250508060010154888481518110610a3757610a3661269d565b5b6020026020010181815250508060020154878481518110610a5b57610a5a61269d565b5b6020026020010181815250508060030154868481518110610a7f57610a7e61269d565b5b6020026020010181815250508060040154858481518110610aa357610aa261269d565b5b6020026020010181815250508060050160009054906101000a900460ff16848481518110610ad457610ad361269d565b5b6020026020010190151590811515815250508280610af1906126cc565b935050505b8080610b01906126cc565b915050610830565b50878787878787879f509f509f509f509f509f509f5050505050505050505090919293949596565b6000803373ffffffffffffffffffffffffffffffffffffffff1673ffffffffffffffffffffffffffffffffffffffff16815260200190815260200160002060009054906101000a900460ff16610bbc576040517f08c379a0000000000000000000000000000000000000000000000000000000008152600401610bb390612786565b60405180910390fd5b60008211610bff576040517f08c379a0000000000000000000000000000000000000000000000000000000008152600401610bf690612818565b60405180910390fd5b81811115610c42576040517f08c379a0000000000000000000000000000000000000000000000000000000008152600401610c39906128aa565b60405180910390fd5b6000600160008573ffffffffffffffffffffffffffffffffffffffff1673ffffffffffffffffffffffffffffffffffffffff16815260200190815260200160002090508281600101819055508181600201819055508373ffffffffffffffffffffffffffffffffffffffff167f2a42313735e1a66b943749dd52cfeda4ebd2af8e1830f9f1bf5cd72f72c1c65f8484604051610cdf9291906128ca565b60405180910390a250505050565b6000803373ffffffffffffffffffffffffffffffffffffffff1673ffffffffffffffffffffffffffffffffffffffff16815260200190815260200160002060009054906101000a900460ff16610d78576040517f08c379a0000000000000000000000000000000000000000000000000000000008152600401610d6f90612786565b60405180910390fd5b600073ffffffffffffffffffffffffffffffffffffffff16600160008573ffffffffffffffffffffffffffffffffffffffff1673ffffffffffffffffffffffffffffffffffffffff16815260200190815260200160002060000160009054906101000a900473ffffffffffffffffffffffffffffffffffffffff1673ffffffffffffffffffffffffffffffffffffffff1614610e49576040517f08c379a0000000000000000000000000000000000000000000000000000000008152600401610e409061293f565b60405180910390fd5b6040518060c001604052803373ffffffffffffffffffffffffffffffffffffffff168152602001838152602001828152602001600081526020016000815260200160001515815250600160008573ffffffffffffffffffffffffffffffffffffffff1673ffffffffffffffffffffffffffffffffffffffff16815260200190815260200160002060008201518160000160006101000a81548173ffffffffffffffffffffffffffffffffffffffff021916908373ffffffffffffffffffffffffffffffffffffffff1602179055506020820151816001015560408201518160020155606082015181600301556080820151816004015560a08201518160050160006101000a81548160ff0219169083151502179055509050503373ffffffffffffffffffffffffffffffffffffffff168373ffffffffffffffffffffffffffffffffffffffff167f8f204b0ecfffe166632e61e14d430dd7c49404debbde00c5d8356ed196ce5e5e8484604051610fc19291906128ca565b60405180910390a3505050565b6000803373ffffffffffffffffffffffffffffffffffffffff1673ffffffffffffffffffffffffffffffffffffffff16815260200190815260200160002060009054906101000a900460ff16611059576040517f08c379a000000000000000000000000000000000000000000000000000000000815260040161105090612786565b60405180910390fd5b600160008273ffffffffffffffffffffffffffffffffffffffff1673ffffffffffffffffffffffffffffffffffffffff168152602001908152602001600020600080820160006101000a81549073ffffffffffffffffffffffffffffffffffffffff021916905560018201600090556002820160009055600382016000905560048201600090556005820160006101000a81549060ff0219169055505050565b6000600260008373ffffffffffffffffffffffffffffffffffffffff1673ffffffffffffffffffffffffffffffffffffffff168152602001908152602001600020549050919050565b803373ffffffffffffffffffffffffffffffffffffffff16600160008373ffffffffffffffffffffffffffffffffffffffff1673ffffffffffffffffffffffffffffffffffffffff16815260200190815260200160002060000160009054906101000a900473ffffffffffffffffffffffffffffffffffffffff1673ffffffffffffffffffffffffffffffffffffffff1614611213576040517f08c379a000000000000000000000000000000000000000000000000000000000815260040161120a906129d1565b60405180910390fd5b600160008373ffffffffffffffffffffffffffffffffffffffff1673ffffffffffffffffffffffffffffffffffffffff16815260200190815260200160002060050160009054906101000a900460ff166112a2576040517f08c379a000000000000000000000000000000000000000000000000000000000815260040161129990612a3d565b60405180910390fd5b6000600160008473ffffffffffffffffffffffffffffffffffffffff1673ffffffffffffffffffffffffffffffffffffffff168152602001908152602001600020600301819055506000600160008473ffffffffffffffffffffffffffffffffffffffff1673ffffffffffffffffffffffffffffffffffffffff168152602001908152602001600020600401819055506000600160008473ffffffffffffffffffffffffffffffffffffffff1673ffffffffffffffffffffffffffffffffffffffff16815260200190815260200160002060050160006101000a81548160ff0219169083151502179055503373ffffffffffffffffffffffffffffffffffffffff168273ffffffffffffffffffffffffffffffffffffffff167fa5c5d25028c154bafde38f2e1b63a731d3fd9b16e8be227d4e1a1a0891a78bda60405160405180910390a35050565b600073ffffffffffffffffffffffffffffffffffffffff168173ffffffffffffffffffffffffffffffffffffffff160361145a576040517f08c379a000000000000000000000000000000000000000000000000000000000815260040161145190612aa9565b60405180910390fd5b80600160008473ffffffffffffffffffffffffffffffffffffffff1673ffffffffffffffffffffffffffffffffffffffff16815260200190815260200160002060000160006101000a81548173ffffffffffffffffffffffffffffffffffffffff021916908373ffffffffffffffffffffffffffffffffffffffff1602179055508073ffffffffffffffffffffffffffffffffffffffff163373ffffffffffffffffffffffffffffffffffffffff168373ffffffffffffffffffffffffffffffffffffffff167f7ff4eaad1f964d5eb0b162c3ed927487bbce47ec6b9b98afb59e0d8364d337a160405160405180910390a45050565b60006020528060005260406000206000915054906101000a900460ff1681565b600073ffffffffffffffffffffffffffffffffffffffff16600160008373ffffffffffffffffffffffffffffffffffffffff1673ffffffffffffffffffffffffffffffffffffffff16815260200190815260200160002060000160009054906101000a900473ffffffffffffffffffffffffffffffffffffffff1673ffffffffffffffffffffffffffffffffffffffff1603611641576040517f08c379a000000000000000000000000000000000000000000000000000000000815260040161163890612b15565b60405180910390fd5b600160008273ffffffffffffffffffffffffffffffffffffffff1673ffffffffffffffffffffffffffffffffffffffff16815260200190815260200160002060050160009054906101000a900460ff166116d0576040517f08c379a00000000000000000000000000000000000000000000000000000000081526004016116c790612ba7565b60405180910390fd5b3460026000600160008573ffffffffffffffffffffffffffffffffffffffff1673ffffffffffffffffffffffffffffffffffffffff16815260200190815260200160002060000160009054906101000a900473ffffffffffffffffffffffffffffffffffffffff1673ffffffffffffffffffffffffffffffffffffffff1673ffffffffffffffffffffffffffffffffffffffff16815260200190815260200160002060008282546117819190612bc7565b925050819055503373ffffffffffffffffffffffffffffffffffffffff168173ffffffffffffffffffffffffffffffffffffffff167fc578616c82bd76d0d4e2c6e4d21c1e5511dfcac2a470e08822370f72605ca04034600160008673ffffffffffffffffffffffffffffffffffffffff1673ffffffffffffffffffffffffffffffffffffffff168152602001908152602001600020600401546040516118299291906128ca565b60405180910390a350565b600073ffffffffffffffffffffffffffffffffffffffff16600160008573ffffffffffffffffffffffffffffffffffffffff1673ffffffffffffffffffffffffffffffffffffffff16815260200190815260200160002060000160009054906101000a900473ffffffffffffffffffffffffffffffffffffffff1673ffffffffffffffffffffffffffffffffffffffff1603611905576040517f08c379a00000000000000000000000000000000000000000000000000000000081526004016118fc90612b15565b60405180910390fd5b600160008473ffffffffffffffffffffffffffffffffffffffff1673ffffffffffffffffffffffffffffffffffffffff16815260200190815260200160002060050160009054906101000a900460ff1615611995576040517f08c379a000000000000000000000000000000000000000000000000000000000815260040161198c90612c47565b60405180910390fd5b81600160008573ffffffffffffffffffffffffffffffffffffffff1673ffffffffffffffffffffffffffffffffffffffff1681526020019081526020016000206003018190555080600160008573ffffffffffffffffffffffffffffffffffffffff1673ffffffffffffffffffffffffffffffffffffffff1681526020019081526020016000206004018190555060018060008573ffffffffffffffffffffffffffffffffffffffff1673ffffffffffffffffffffffffffffffffffffffff16815260200190815260200160002060050160006101000a81548160ff0219169083151502179055508273ffffffffffffffffffffffffffffffffffffffff167f1fd907342b91f785f4372ccb9a0dc9215f6d72324756f36d52cb5e93348255eb8383604051611ac59291906128ca565b60405180910390a2505050565b600073ffffffffffffffffffffffffffffffffffffffff16600160008473ffffffffffffffffffffffffffffffffffffffff1673ffffffffffffffffffffffffffffffffffffffff16815260200190815260200160002060000160009054906101000a900473ffffffffffffffffffffffffffffffffffffffff1673ffffffffffffffffffffffffffffffffffffffff1603611ba3576040517f08c379a0000000000000000000000000000000000000000000000000000000008152600401611b9a90612b15565b60405180910390fd5b600160008373ffffffffffffffffffffffffffffffffffffffff1673ffffffffffffffffffffffffffffffffffffffff16815260200190815260200160002060050160009054906101000a900460ff16611c32576040517f08c379a0000000000000000000000000000000000000000000000000000000008152600401611c2990612a3d565b60405180910390fd5b80600160008473ffffffffffffffffffffffffffffffffffffffff1673ffffffffffffffffffffffffffffffffffffffff168152602001908152602001600020600301819055503460026000600160008673ffffffffffffffffffffffffffffffffffffffff1673ffffffffffffffffffffffffffffffffffffffff16815260200190815260200160002060000160009054906101000a900473ffffffffffffffffffffffffffffffffffffffff1673ffffffffffffffffffffffffffffffffffffffff1673ffffffffffffffffffffffffffffffffffffffff1681526020019081526020016000206000828254611d2a9190612bc7565b925050819055503373ffffffffffffffffffffffffffffffffffffffff168273ffffffffffffffffffffffffffffffffffffffff167fc578616c82bd76d0d4e2c6e4d21c1e5511dfcac2a470e08822370f72605ca04034600160008773ffffffffffffffffffffffffffffffffffffffff1673ffffffffffffffffffffffffffffffffffffffff16815260200190815260200160002060040154604051611dd29291906128ca565b60405180910390a35050565b6000803373ffffffffffffffffffffffffffffffffffffffff1673ffffffffffffffffffffffffffffffffffffffff16815260200190815260200160002060009054906101000a900460ff16611e69576040517f08c379a0000000000000000000000000000000000000000000000000000000008152600401611e6090612786565b60405180910390fd5b806000808473ffffffffffffffffffffffffffffffffffffffff1673ffffffffffffffffffffffffffffffffffffffff16815260200190815260200160002060006101000a81548160ff0219169083151502179055508173ffffffffffffffffffffffffffffffffffffffff167f590f69937de0f94d7654f9f184089382f76863cad698392e7ec986c8371064da82604051611f0591906124d8565b60405180910390a25050565b600080fd5b6000819050919050565b611f2981611f16565b8114611f3457600080fd5b50565b600081359050611f4681611f20565b92915050565b600060208284031215611f6257611f61611f11565b5b6000611f7084828501611f37565b91505092915050565b600073ffffffffffffffffffffffffffffffffffffffff82169050919050565b6000611fa482611f79565b9050919050565b611fb481611f99565b8114611fbf57600080fd5b50565b600081359050611fd181611fab565b92915050565b600060208284031215611fed57611fec611f11565b5b6000611ffb84828501611fc2565b91505092915050565b61200d81611f99565b82525050565b61201c81611f16565b82525050565b60008115159050919050565b61203781612022565b82525050565b600060c0820190506120526000830189612004565b61205f6020830188612013565b61206c6040830187612013565b6120796060830186612013565b6120866080830185612013565b61209360a083018461202e565b979650505050505050565b60006020820190506120b36000830184612013565b92915050565b600081519050919050565b600082825260208201905092915050565b60005b838110156120f35780820151818401526020810190506120d8565b60008484015250505050565b6000601f19601f8301169050919050565b600061211b826120b9565b61212581856120c4565b93506121358185602086016120d5565b61213e816120ff565b840191505092915050565b600060208201905081810360008301526121638184612110565b905092915050565b600081519050919050565b600082825260208201905092915050565b6000819050602082019050919050565b6121a081611f99565b82525050565b60006121b28383612197565b60208301905092915050565b6000602082019050919050565b60006121d68261216b565b6121e08185612176565b93506121eb83612187565b8060005b8381101561221c57815161220388826121a6565b975061220e836121be565b9250506001810190506121ef565b5085935050505092915050565b600081519050919050565b600082825260208201905092915050565b6000819050602082019050919050565b61225e81611f16565b82525050565b60006122708383612255565b60208301905092915050565b6000602082019050919050565b600061229482612229565b61229e8185612234565b93506122a983612245565b8060005b838110156122da5781516122c18882612264565b97506122cc8361227c565b9250506001810190506122ad565b5085935050505092915050565b600081519050919050565b600082825260208201905092915050565b6000819050602082019050919050565b61231c81612022565b82525050565b600061232e8383612313565b60208301905092915050565b6000602082019050919050565b6000612352826122e7565b61235c81856122f2565b935061236783612303565b8060005b8381101561239857815161237f8882612322565b975061238a8361233a565b92505060018101905061236b565b5085935050505092915050565b600060e08201905081810360008301526123bf818a6121cb565b905081810360208301526123d381896121cb565b905081810360408301526123e78188612289565b905081810360608301526123fb8187612289565b9050818103608083015261240f8186612289565b905081810360a08301526124238185612289565b905081810360c08301526124378184612347565b905098975050505050505050565b60008060006060848603121561245e5761245d611f11565b5b600061246c86828701611fc2565b935050602061247d86828701611f37565b925050604061248e86828701611f37565b9150509250925092565b600080604083850312156124af576124ae611f11565b5b60006124bd85828601611fc2565b92505060206124ce85828601611fc2565b9150509250929050565b60006020820190506124ed600083018461202e565b92915050565b6000806040838503121561250a57612509611f11565b5b600061251885828601611fc2565b925050602061252985828601611f37565b9150509250929050565b61253c81612022565b811461254757600080fd5b50565b60008135905061255981612533565b92915050565b6000806040838503121561257657612575611f11565b5b600061258485828601611fc2565b92505060206125958582860161254a565b9150509250929050565b7f496e73756666696369656e742062616c616e6365000000000000000000000000600082015250565b60006125d56014836120c4565b91506125e08261259f565b602082019050919050565b60006020820190508181036000830152612604816125c8565b9050919050565b7f4e487b7100000000000000000000000000000000000000000000000000000000600052601160045260246000fd5b600061264582611f16565b915061265083611f16565b92508282039050818111156126685761266761260b565b5b92915050565b7f4e487b7100000000000000000000000000000000000000000000000000000000600052604160045260246000fd5b7f4e487b7100000000000000000000000000000000000000000000000000000000600052603260045260246000fd5b60006126d782611f16565b91507fffffffffffffffffffffffffffffffffffffffffffffffffffffffffffffffff82036127095761270861260b565b5b600182019050919050565b7f4f6e6c792061646d696e6973747261746f72732063616e20706572666f726d2060008201527f7468697320616374696f6e000000000000000000000000000000000000000000602082015250565b6000612770602b836120c4565b915061277b82612714565b604082019050919050565b6000602082019050818103600083015261279f81612763565b9050919050565b7f546f74616c2061726561206d7573742062652067726561746572207468616e2060008201527f7a65726f00000000000000000000000000000000000000000000000000000000602082015250565b60006128026024836120c4565b915061280d826127a6565b604082019050919050565b60006020820190508181036000830152612831816127f5565b9050919050565b7f55736566756c20617265612063616e6e6f742065786365656420746f74616c2060008201527f6172656100000000000000000000000000000000000000000000000000000000602082015250565b60006128946024836120c4565b915061289f82612838565b604082019050919050565b600060208201905081810360008301526128c381612887565b9050919050565b60006040820190506128df6000830185612013565b6128ec6020830184612013565b9392505050565b7f50726f706572747920697320616c726561647920726567697374657265640000600082015250565b6000612929601e836120c4565b9150612934826128f3565b602082019050919050565b600060208201905081810360008301526129588161291c565b9050919050565b7f4f6e6c7920746865206f776e65722063616e20706572666f726d20746869732060008201527f616374696f6e0000000000000000000000000000000000000000000000000000602082015250565b60006129bb6026836120c4565b91506129c68261295f565b604082019050919050565b600060208201905081810360008301526129ea816129ae565b9050919050565b7f50726f7065727479206973206e6f742072656e74656400000000000000000000600082015250565b6000612a276016836120c4565b9150612a32826129f1565b602082019050919050565b60006020820190508181036000830152612a5681612a1a565b9050919050565b7f496e76616c6964206e6577206f776e6572206164647265737300000000000000600082015250565b6000612a936019836120c4565b9150612a9e82612a5d565b602082019050919050565b60006020820190508181036000830152612ac281612a86565b9050919050565b7f50726f7065727479206973206e6f742072656769737465726564000000000000600082015250565b6000612aff601a836120c4565b9150612b0a82612ac9565b602082019050919050565b60006020820190508181036000830152612b2e81612af2565b9050919050565b7f50726f7065727479206973206e6f7420617661696c61626c6520666f7220726560008201527f6e74000000000000000000000000000000000000000000000000000000000000602082015250565b6000612b916022836120c4565b9150612b9c82612b35565b604082019050919050565b60006020820190508181036000830152612bc081612b84565b9050919050565b6000612bd282611f16565b9150612bdd83611f16565b9250828201905080821115612bf557612bf461260b565b5b92915050565b7f50726f706572747920697320616c72656164792072656e746564000000000000600082015250565b6000612c31601a836120c4565b9150612c3c82612bfb565b602082019050919050565b60006020820190508181036000830152612c6081612c24565b905091905056fea2646970667358221220e9b925f0709ba8f6a8e182243580f8c1e36385f199ab2df11a5f1d70401d9f0964736f6c63430008130033",
  "immutableReferences": {},
  "source": "// SPDX-License-Identifier: MIT\r\npragma solidity >=0.4.22 <0.9.0;\r\n\r\ncontract EstateAgency {\r\n\r\n    struct Property {\r\n        address owner;\r\n        uint totalArea;\r\n        uint usefulArea;\r\n        uint rentAmount;\r\n        uint rentDuration;\r\n        bool rented;\r\n    }\r\n\r\n    mapping(address => bool) public administrators;\r\n    mapping(address => Property) public properties;\r\n    mapping(address => uint) public balances;\r\n\r\n    event PropertyRegistered(address indexed propertyAddress, address indexed owner, uint totalArea, uint usefulArea);\r\n    event RentOffered(address indexed propertyAddress, uint rentAmount, uint rentDuration);\r\n    event RentConfirmed(address indexed propertyAddress, address indexed renter, uint rentAmount, uint rentDuration);\r\n    event RentCancelled(address indexed propertyAddress, address indexed renter);\r\n    event FundsWithdrawn(address indexed receiver, uint amount);\r\n    event RoleChanged(address indexed user, bool isAdmin);\r\n    event PropertyAreasUpdated(address indexed propertyAddress, uint newTotalArea, uint newUsefulArea);\r\n    event PropertyOwnerChanged(address indexed propertyAddress, address indexed previousOwner, address indexed newOwner);\r\n\r\n    constructor(address admin1, address admin2, address owner1, address owner2)  {\r\n        administrators[admin1] = true;\r\n        administrators[admin2] = true;\r\n        administrators[owner1] = false;\r\n        administrators[owner2] = false;\r\n        balances[admin1] = 100;\r\n        balances[admin2] = 100;\r\n        balances[owner1] = 100;\r\n        balances[owner2] = 100;\r\n    }\r\n\r\n\r\n    modifier onlyAdmin() {\r\n        require(administrators[msg.sender], \"Only administrators can perform this action\");\r\n        _;\r\n    }\r\n\r\n    modifier onlyOwner(address propertyAddress) {\r\n        require(properties[propertyAddress].owner == msg.sender, \"Only the owner can perform this action\");\r\n        _;\r\n    }\r\n\r\n\r\n    function checkContract() public pure returns (string memory) {\r\n        return \"Contract is working!\";\r\n    }\r\n\r\n    function registerProperty(address propertyAddress, uint totalArea, uint usefulArea) public onlyAdmin {\r\n        require(properties[propertyAddress].owner == address(0), \"Property is already registered\");\r\n        properties[propertyAddress] = Property(msg.sender, totalArea, usefulArea, 0, 0, false);\r\n        emit PropertyRegistered(propertyAddress, msg.sender, totalArea, usefulArea);\r\n    }\r\n\r\n    function offerRent(address propertyAddress, uint rentAmount, uint rentDuration) public {\r\n        require(properties[propertyAddress].owner != address(0), \"Property is not registered\");\r\n        require(!properties[propertyAddress].rented, \"Property is already rented\");\r\n        properties[propertyAddress].rentAmount = rentAmount;\r\n        properties[propertyAddress].rentDuration = rentDuration;\r\n        properties[propertyAddress].rented = true;\r\n        emit RentOffered(propertyAddress, rentAmount, rentDuration);\r\n    }\r\n\r\n    function confirmRent(address propertyAddress) public payable {\r\n        require(properties[propertyAddress].owner != address(0), \"Property is not registered\");\r\n        require(properties[propertyAddress].rented, \"Property is not available for rent\");\r\n        balances[properties[propertyAddress].owner] += msg.value;\r\n        emit RentConfirmed(propertyAddress, msg.sender, msg.value, properties[propertyAddress].rentDuration);\r\n    }\r\n\r\n    function cancelRentOffer(address propertyAddress) public onlyOwner(propertyAddress) {\r\n        require(properties[propertyAddress].rented, \"Property is not rented\");\r\n        properties[propertyAddress].rentAmount = 0;\r\n        properties[propertyAddress].rentDuration = 0;\r\n        properties[propertyAddress].rented = false;\r\n        emit RentCancelled(propertyAddress, msg.sender);\r\n    }\r\n\r\n    function withdrawFunds(uint amount) public {\r\n        require(balances[msg.sender] >= amount, \"Insufficient balance\");\r\n        balances[msg.sender] -= amount;\r\n        address payable receiver = payable(msg.sender);\r\n        receiver.transfer(amount);\r\n        emit FundsWithdrawn(msg.sender, amount);\r\n    }\r\n\r\n    function changeUserRole(address user, bool isAdmin) public onlyAdmin {\r\n        administrators[user] = isAdmin;\r\n        emit RoleChanged(user, isAdmin);\r\n    }\r\n\r\n    // \r\n    function transferOwnership(address propertyAddress, address newOwner) public {\r\n        require(newOwner != address(0), \"Invalid new owner address\");\r\n        properties[propertyAddress].owner = newOwner;\r\n        emit PropertyOwnerChanged(propertyAddress, msg.sender, newOwner);\r\n    }\r\n\r\n    function extendRent(address propertyAddress, uint newRentAmount) public payable {\r\n        require(properties[propertyAddress].owner != address(0), \"Property is not registered\");\r\n        require(properties[propertyAddress].rented, \"Property is not rented\");\r\n\r\n        properties[propertyAddress].rentAmount = newRentAmount;\r\n\r\n        //         \r\n        balances[properties[propertyAddress].owner] += msg.value;\r\n\r\n        emit RentConfirmed(propertyAddress, msg.sender, msg.value, properties[propertyAddress].rentDuration);\r\n    }\r\n\r\n    function removeProperty(address propertyAddress) public onlyAdmin {\r\n        delete properties[propertyAddress];\r\n    }\r\n\r\n    function updatePropertyAreas(address propertyAddress, uint newTotalArea, uint newUsefulArea) public onlyAdmin {\r\n        require(newTotalArea > 0, \"Total area must be greater than zero\");\r\n        require(newUsefulArea <= newTotalArea, \"Useful area cannot exceed total area\");\r\n\r\n        Property storage property = properties[propertyAddress];\r\n        property.totalArea = newTotalArea;\r\n        property.usefulArea = newUsefulArea;\r\n\r\n        emit PropertyAreasUpdated(propertyAddress, newTotalArea, newUsefulArea);\r\n    }\r\n\r\n    function checkBalance(address account) public view returns (uint) {\r\n        return balances[account];\r\n    }\r\n\r\n    //\r\n    function getAllProperties() public view returns (address[] memory, address[] memory, uint[] memory, uint[] memory, uint[] memory, uint[] memory, bool[] memory) {\r\n        uint length = address(this).balance;\r\n        address[] memory propertyAddresses = new address[](length);\r\n        address[] memory owners = new address[](length);\r\n        uint[] memory totalAreas = new uint[](length);\r\n        uint[] memory usefulAreas = new uint[](length);\r\n        uint[] memory rentAmounts = new uint[](length);\r\n        uint[] memory rentDurations = new uint[](length);\r\n        bool[] memory rentedStatuses = new bool[](length);\r\n\r\n        uint index = 0;\r\n        for (uint i = 0; i < length; i++) {\r\n            if (properties[propertyAddresses[i]].owner != address(0)) {\r\n                Property storage property = properties[propertyAddresses[i]];\r\n                propertyAddresses[index] = propertyAddresses[i];\r\n                owners[index] = property.owner;\r\n                totalAreas[index] = property.totalArea;\r\n                usefulAreas[index] = property.usefulArea;\r\n                rentAmounts[index] = property.rentAmount;\r\n                rentDurations[index] = property.rentDuration;\r\n                rentedStatuses[index] = property.rented;\r\n                index++;\r\n            }\r\n        }\r\n\r\n        return (propertyAddresses, owners, totalAreas, usefulAreas, rentAmounts, rentDurations, rentedStatuses);\r\n    }\r\n}",
  "sourcePath": "C:\\Users\\catsa\\WebstormProjects\\untitled\\contracts\\EstateAgency.sol",
  "compiler": {
    "name": "solc",
    "version": "0.8.19+commit.7dd6d404.Emscripten.clang"
  },
  "schemaVersion": "3.4.16",
  "updatedAt": "2024-05-14T17:04:28.806Z",
  "devdoc": {
    "kind": "dev",
    "methods": {},
    "version": 1
  },
  "userdoc": {
    "kind": "user",
    "methods": {},
    "version": 1
  }
}