{
  "contractName": "EstateAgency",
  "abi": [
    {
      "inputs": [
        {
          "internalType": "address",
          "name": "admin1",
          "type": "address"
        },
        {
          "internalType": "address",
          "name": "admin2",
          "type": "address"
        },
        {
          "internalType": "address",
          "name": "owner1",
          "type": "address"
        },
        {
          "internalType": "address",
          "name": "owner2",
          "type": "address"
        }
      ],
      "stateMutability": "nonpayable",
      "type": "constructor"
    },
    {
      "anonymous": false,
      "inputs": [
        {
          "indexed": true,
          "internalType": "address",
          "name": "receiver",
          "type": "address"
        },
        {
          "indexed": false,
          "internalType": "uint256",
          "name": "amount",
          "type": "uint256"
        }
      ],
      "name": "FundsWithdrawn",
      "type": "event"
    },
    {
      "anonymous": false,
      "inputs": [
        {
          "indexed": true,
          "internalType": "address",
          "name": "propertyAddress",
          "type": "address"
        },
        {
          "indexed": false,
          "internalType": "uint256",
          "name": "newTotalArea",
          "type": "uint256"
        },
        {
          "indexed": false,
          "internalType": "uint256",
          "name": "newUsefulArea",
          "type": "uint256"
        }
      ],
      "name": "PropertyAreasUpdated",
      "type": "event"
    },
    {
      "anonymous": false,
      "inputs": [
        {
          "indexed": true,
          "internalType": "address",
          "name": "propertyAddress",
          "type": "address"
        },
        {
          "indexed": true,
          "internalType": "address",
          "name": "previousOwner",
          "type": "address"
        },
        {
          "indexed": true,
          "internalType": "address",
          "name": "newOwner",
          "type": "address"
        }
      ],
      "name": "PropertyOwnerChanged",
      "type": "event"
    },
    {
      "anonymous": false,
      "inputs": [
        {
          "indexed": true,
          "internalType": "address",
          "name": "propertyAddress",
          "type": "address"
        },
        {
          "indexed": true,
          "internalType": "address",
          "name": "owner",
          "type": "address"
        },
        {
          "indexed": false,
          "internalType": "uint256",
          "name": "totalArea",
          "type": "uint256"
        },
        {
          "indexed": false,
          "internalType": "uint256",
          "name": "usefulArea",
          "type": "uint256"
        }
      ],
      "name": "PropertyRegistered",
      "type": "event"
    },
    {
      "anonymous": false,
      "inputs": [
        {
          "indexed": true,
          "internalType": "address",
          "name": "propertyAddress",
          "type": "address"
        },
        {
          "indexed": true,
          "internalType": "address",
          "name": "renter",
          "type": "address"
        }
      ],
      "name": "RentCancelled",
      "type": "event"
    },
    {
      "anonymous": false,
      "inputs": [
        {
          "indexed": true,
          "internalType": "address",
          "name": "propertyAddress",
          "type": "address"
        },
        {
          "indexed": true,
          "internalType": "address",
          "name": "renter",
          "type": "address"
        },
        {
          "indexed": false,
          "internalType": "uint256",
          "name": "rentAmount",
          "type": "uint256"
        },
        {
          "indexed": false,
          "internalType": "uint256",
          "name": "rentDuration",
          "type": "uint256"
        }
      ],
      "name": "RentConfirmed",
      "type": "event"
    },
    {
      "anonymous": false,
      "inputs": [
        {
          "indexed": true,
          "internalType": "address",
          "name": "propertyAddress",
          "type": "address"
        },
        {
          "indexed": false,
          "internalType": "uint256",
          "name": "rentAmount",
          "type": "uint256"
        },
        {
          "indexed": false,
          "internalType": "uint256",
          "name": "rentDuration",
          "type": "uint256"
        }
      ],
      "name": "RentOffered",
      "type": "event"
    },
    {
      "anonymous": false,
      "inputs": [
        {
          "indexed": true,
          "internalType": "address",
          "name": "user",
          "type": "address"
        },
        {
          "indexed": false,
          "internalType": "bool",
          "name": "isAdmin",
          "type": "bool"
        }
      ],
      "name": "RoleChanged",
      "type": "event"
    },
    {
      "inputs": [
        {
          "internalType": "address",
          "name": "",
          "type": "address"
        }
      ],
      "name": "administrators",
      "outputs": [
        {
          "internalType": "bool",
          "name": "",
          "type": "bool"
        }
      ],
      "stateMutability": "view",
      "type": "function",
      "constant": true
    },
    {
      "inputs": [
        {
          "internalType": "address",
          "name": "",
          "type": "address"
        }
      ],
      "name": "balances",
      "outputs": [
        {
          "internalType": "uint256",
          "name": "",
          "type": "uint256"
        }
      ],
      "stateMutability": "view",
      "type": "function",
      "constant": true
    },
    {
      "inputs": [
        {
          "internalType": "address",
          "name": "",
          "type": "address"
        }
      ],
      "name": "properties",
      "outputs": [
        {
          "internalType": "address",
          "name": "owner",
          "type": "address"
        },
        {
          "internalType": "uint256",
          "name": "totalArea",
          "type": "uint256"
        },
        {
          "internalType": "uint256",
          "name": "usefulArea",
          "type": "uint256"
        },
        {
          "internalType": "uint256",
          "name": "rentAmount",
          "type": "uint256"
        },
        {
          "internalType": "uint256",
          "name": "rentDuration",
          "type": "uint256"
        },
        {
          "internalType": "bool",
          "name": "rented",
          "type": "bool"
        }
      ],
      "stateMutability": "view",
      "type": "function",
      "constant": true
    },
    {
      "inputs": [],
      "name": "checkContract",
      "outputs": [
        {
          "internalType": "string",
          "name": "",
          "type": "string"
        }
      ],
      "stateMutability": "pure",
      "type": "function",
      "constant": true
    },
    {
      "inputs": [
        {
          "internalType": "address",
          "name": "propertyAddress",
          "type": "address"
        },
        {
          "internalType": "uint256",
          "name": "totalArea",
          "type": "uint256"
        },
        {
          "internalType": "uint256",
          "name": "usefulArea",
          "type": "uint256"
        }
      ],
      "name": "registerProperty",
      "outputs": [],
      "stateMutability": "nonpayable",
      "type": "function"
    },
    {
      "inputs": [
        {
          "internalType": "address",
          "name": "propertyAddress",
          "type": "address"
        },
        {
          "internalType": "uint256",
          "name": "rentAmount",
          "type": "uint256"
        },
        {
          "internalType": "uint256",
          "name": "rentDuration",
          "type": "uint256"
        }
      ],
      "name": "offerRent",
      "outputs": [],
      "stateMutability": "nonpayable",
      "type": "function"
    },
    {
      "inputs": [
        {
          "internalType": "address",
          "name": "propertyAddress",
          "type": "address"
        }
      ],
      "name": "confirmRent",
      "outputs": [],
      "stateMutability": "payable",
      "type": "function",
      "payable": true
    },
    {
      "inputs": [
        {
          "internalType": "address",
          "name": "propertyAddress",
          "type": "address"
        }
      ],
      "name": "cancelRentOffer",
      "outputs": [],
      "stateMutability": "nonpayable",
      "type": "function"
    },
    {
      "inputs": [
        {
          "internalType": "uint256",
          "name": "amount",
          "type": "uint256"
        }
      ],
      "name": "withdrawFunds",
      "outputs": [],
      "stateMutability": "nonpayable",
      "type": "function"
    },
    {
      "inputs": [
        {
          "internalType": "address",
          "name": "user",
          "type": "address"
        },
        {
          "internalType": "bool",
          "name": "isAdmin",
          "type": "bool"
        }
      ],
      "name": "changeUserRole",
      "outputs": [],
      "stateMutability": "nonpayable",
      "type": "function"
    },
    {
      "inputs": [
        {
          "internalType": "address",
          "name": "propertyAddress",
          "type": "address"
        },
        {
          "internalType": "address",
          "name": "newOwner",
          "type": "address"
        }
      ],
      "name": "transferOwnership",
      "outputs": [],
      "stateMutability": "nonpayable",
      "type": "function"
    },
    {
      "inputs": [
        {
          "internalType": "address",
          "name": "propertyAddress",
          "type": "address"
        },
        {
          "internalType": "uint256",
          "name": "additionalRentDuration",
          "type": "uint256"
        },
        {
          "internalType": "uint256",
          "name": "newRentAmount",
          "type": "uint256"
        }
      ],
      "name": "extendRent",
      "outputs": [],
      "stateMutability": "payable",
      "type": "function",
      "payable": true
    },
    {
      "inputs": [
        {
          "internalType": "address",
          "name": "propertyAddress",
          "type": "address"
        }
      ],
      "name": "removeProperty",
      "outputs": [],
      "stateMutability": "nonpayable",
      "type": "function"
    },
    {
      "inputs": [
        {
          "internalType": "address",
          "name": "propertyAddress",
          "type": "address"
        },
        {
          "internalType": "uint256",
          "name": "newTotalArea",
          "type": "uint256"
        },
        {
          "internalType": "uint256",
          "name": "newUsefulArea",
          "type": "uint256"
        }
      ],
      "name": "updatePropertyAreas",
      "outputs": [],
      "stateMutability": "nonpayable",
      "type": "function"
    },
    {
      "inputs": [
        {
          "internalType": "address",
          "name": "account",
          "type": "address"
        }
      ],
      "name": "checkBalance",
      "outputs": [
        {
          "internalType": "uint256",
          "name": "",
          "type": "uint256"
        }
      ],
      "stateMutability": "view",
      "type": "function",
      "constant": true
    },
    {
      "inputs": [],
      "name": "getAllProperties",
      "outputs": [
        {
          "internalType": "address[]",
          "name": "",
          "type": "address[]"
        },
        {
          "internalType": "address[]",
          "name": "",
          "type": "address[]"
        },
        {
          "internalType": "uint256[]",
          "name": "",
          "type": "uint256[]"
        },
        {
          "internalType": "uint256[]",
          "name": "",
          "type": "uint256[]"
        },
        {
          "internalType": "uint256[]",
          "name": "",
          "type": "uint256[]"
        },
        {
          "internalType": "uint256[]",
          "name": "",
          "type": "uint256[]"
        },
        {
          "internalType": "bool[]",
          "name": "",
          "type": "bool[]"
        }
      ],
      "stateMutability": "view",
      "type": "function",
      "constant": true
    }
  ],
  "bytecode": "0x60806040523480156200001157600080fd5b50604051620030543803806200305483398181016040528101906200003791906200031b565b60016000808673ffffffffffffffffffffffffffffffffffffffff1673ffffffffffffffffffffffffffffffffffffffff16815260200190815260200160002060006101000a81548160ff02191690831515021790555060016000808573ffffffffffffffffffffffffffffffffffffffff1673ffffffffffffffffffffffffffffffffffffffff16815260200190815260200160002060006101000a81548160ff02191690831515021790555060008060008473ffffffffffffffffffffffffffffffffffffffff1673ffffffffffffffffffffffffffffffffffffffff16815260200190815260200160002060006101000a81548160ff02191690831515021790555060008060008373ffffffffffffffffffffffffffffffffffffffff1673ffffffffffffffffffffffffffffffffffffffff16815260200190815260200160002060006101000a81548160ff0219169083151502179055506064600260008673ffffffffffffffffffffffffffffffffffffffff1673ffffffffffffffffffffffffffffffffffffffff168152602001908152602001600020819055506064600260008573ffffffffffffffffffffffffffffffffffffffff1673ffffffffffffffffffffffffffffffffffffffff168152602001908152602001600020819055506064600260008473ffffffffffffffffffffffffffffffffffffffff1673ffffffffffffffffffffffffffffffffffffffff168152602001908152602001600020819055506064600260008373ffffffffffffffffffffffffffffffffffffffff1673ffffffffffffffffffffffffffffffffffffffff16815260200190815260200160002081905550505050506200038d565b600080fd5b600073ffffffffffffffffffffffffffffffffffffffff82169050919050565b6000620002e382620002b6565b9050919050565b620002f581620002d6565b81146200030157600080fd5b50565b6000815190506200031581620002ea565b92915050565b60008060008060808587031215620003385762000337620002b1565b5b6000620003488782880162000304565b94505060206200035b8782880162000304565b93505060406200036e8782880162000304565b9250506060620003818782880162000304565b91505092959194509250565b612cb7806200039d6000396000f3fe6080604052600436106100f35760003560e01c80635f5152261161008a578063c110ae0911610059578063c110ae0914610343578063d6e7301d1461035f578063e756714c14610388578063f9441580146103a4576100f3565b80635f515226146102775780636c36a105146102b45780636d435421146102dd57806376be158514610306576100f3565b80633d51402c116100c65780633d51402c146101cb578063400a9e78146101fc5780634202ca2c14610225578063574385f71461024e576100f3565b8063155dd5ee146100f857806325ec77d71461012157806327e235e314610163578063338116b0146101a0575b600080fd5b34801561010457600080fd5b5061011f600480360381019061011a9190611fa6565b6103cd565b005b34801561012d57600080fd5b5061014860048036038101906101439190612031565b610543565b60405161015a96959493929190612097565b60405180910390f35b34801561016f57600080fd5b5061018a60048036038101906101859190612031565b6105ac565b60405161019791906120f8565b60405180910390f35b3480156101ac57600080fd5b506101b56105c4565b6040516101c291906121a3565b60405180910390f35b3480156101d757600080fd5b506101e0610601565b6040516101f397969594939291906123ff565b60405180910390f35b34801561020857600080fd5b50610223600480360381019061021e919061249f565b610b31565b005b34801561023157600080fd5b5061024c6004803603810190610247919061249f565b610ced565b005b34801561025a57600080fd5b5061027560048036038101906102709190612031565b610fce565b005b34801561028357600080fd5b5061029e60048036038101906102999190612031565b6110f9565b6040516102ab91906120f8565b60405180910390f35b3480156102c057600080fd5b506102db60048036038101906102d69190612031565b611142565b005b3480156102e957600080fd5b5061030460048036038101906102ff91906124f2565b6113eb565b005b34801561031257600080fd5b5061032d60048036038101906103289190612031565b611550565b60405161033a9190612532565b60405180910390f35b61035d60048036038101906103589190612031565b611570565b005b34801561036b57600080fd5b506103866004803603810190610381919061249f565b611834565b005b6103a2600480360381019061039d919061249f565b611ad2565b005b3480156103b057600080fd5b506103cb60048036038101906103c69190612579565b611e38565b005b80600260003373ffffffffffffffffffffffffffffffffffffffff1673ffffffffffffffffffffffffffffffffffffffff16815260200190815260200160002054101561044f576040517f08c379a000000000000000000000000000000000000000000000000000000000815260040161044690612605565b60405180910390fd5b80600260003373ffffffffffffffffffffffffffffffffffffffff1673ffffffffffffffffffffffffffffffffffffffff168152602001908152602001600020600082825461049e9190612654565b9250508190555060003390508073ffffffffffffffffffffffffffffffffffffffff166108fc839081150290604051600060405180830381858888f193505050501580156104f0573d6000803e3d6000fd5b503373ffffffffffffffffffffffffffffffffffffffff167feaff4b37086828766ad3268786972c0cd24259d4c87a80f9d3963a3c3d999b0d8360405161053791906120f8565b60405180910390a25050565b60016020528060005260406000206000915090508060000160009054906101000a900473ffffffffffffffffffffffffffffffffffffffff16908060010154908060020154908060030154908060040154908060050160009054906101000a900460ff16905086565b60026020528060005260406000206000915090505481565b60606040518060400160405280601481526020017f436f6e747261637420697320776f726b696e6721000000000000000000000000815250905090565b6060806060806060806060600047905060008167ffffffffffffffff81111561062d5761062c612688565b5b60405190808252806020026020018201604052801561065b5781602001602082028036833780820191505090505b50905060008267ffffffffffffffff81111561067a57610679612688565b5b6040519080825280602002602001820160405280156106a85781602001602082028036833780820191505090505b50905060008367ffffffffffffffff8111156106c7576106c6612688565b5b6040519080825280602002602001820160405280156106f55781602001602082028036833780820191505090505b50905060008467ffffffffffffffff81111561071457610713612688565b5b6040519080825280602002602001820160405280156107425781602001602082028036833780820191505090505b50905060008567ffffffffffffffff81111561076157610760612688565b5b60405190808252806020026020018201604052801561078f5781602001602082028036833780820191505090505b50905060008667ffffffffffffffff8111156107ae576107ad612688565b5b6040519080825280602002602001820160405280156107dc5781602001602082028036833780820191505090505b50905060008767ffffffffffffffff8111156107fb576107fa612688565b5b6040519080825280602002602001820160405280156108295781602001602082028036833780820191505090505b5090506000805b89811015610b0957600073ffffffffffffffffffffffffffffffffffffffff16600160008b8481518110610867576108666126b7565b5b602002602001015173ffffffffffffffffffffffffffffffffffffffff1673ffffffffffffffffffffffffffffffffffffffff16815260200190815260200160002060000160009054906101000a900473ffffffffffffffffffffffffffffffffffffffff1673ffffffffffffffffffffffffffffffffffffffff1614610af6576000600160008b8481518110610901576109006126b7565b5b602002602001015173ffffffffffffffffffffffffffffffffffffffff1673ffffffffffffffffffffffffffffffffffffffff1681526020019081526020016000209050898281518110610958576109576126b7565b5b60200260200101518a8481518110610973576109726126b7565b5b602002602001019073ffffffffffffffffffffffffffffffffffffffff16908173ffffffffffffffffffffffffffffffffffffffff16815250508060000160009054906101000a900473ffffffffffffffffffffffffffffffffffffffff168984815181106109e5576109e46126b7565b5b602002602001019073ffffffffffffffffffffffffffffffffffffffff16908173ffffffffffffffffffffffffffffffffffffffff16815250508060010154888481518110610a3757610a366126b7565b5b6020026020010181815250508060020154878481518110610a5b57610a5a6126b7565b5b6020026020010181815250508060030154868481518110610a7f57610a7e6126b7565b5b6020026020010181815250508060040154858481518110610aa357610aa26126b7565b5b6020026020010181815250508060050160009054906101000a900460ff16848481518110610ad457610ad36126b7565b5b6020026020010190151590811515815250508280610af1906126e6565b935050505b8080610b01906126e6565b915050610830565b50878787878787879f509f509f509f509f509f509f5050505050505050505090919293949596565b6000803373ffffffffffffffffffffffffffffffffffffffff1673ffffffffffffffffffffffffffffffffffffffff16815260200190815260200160002060009054906101000a900460ff16610bbc576040517f08c379a0000000000000000000000000000000000000000000000000000000008152600401610bb3906127a0565b60405180910390fd5b60008211610bff576040517f08c379a0000000000000000000000000000000000000000000000000000000008152600401610bf690612832565b60405180910390fd5b81811115610c42576040517f08c379a0000000000000000000000000000000000000000000000000000000008152600401610c39906128c4565b60405180910390fd5b6000600160008573ffffffffffffffffffffffffffffffffffffffff1673ffffffffffffffffffffffffffffffffffffffff16815260200190815260200160002090508281600101819055508181600201819055508373ffffffffffffffffffffffffffffffffffffffff167f2a42313735e1a66b943749dd52cfeda4ebd2af8e1830f9f1bf5cd72f72c1c65f8484604051610cdf9291906128e4565b60405180910390a250505050565b6000803373ffffffffffffffffffffffffffffffffffffffff1673ffffffffffffffffffffffffffffffffffffffff16815260200190815260200160002060009054906101000a900460ff16610d78576040517f08c379a0000000000000000000000000000000000000000000000000000000008152600401610d6f906127a0565b60405180910390fd5b600073ffffffffffffffffffffffffffffffffffffffff16600160008573ffffffffffffffffffffffffffffffffffffffff1673ffffffffffffffffffffffffffffffffffffffff16815260200190815260200160002060000160009054906101000a900473ffffffffffffffffffffffffffffffffffffffff1673ffffffffffffffffffffffffffffffffffffffff1614610e49576040517f08c379a0000000000000000000000000000000000000000000000000000000008152600401610e4090612959565b60405180910390fd5b6040518060c001604052803373ffffffffffffffffffffffffffffffffffffffff168152602001838152602001828152602001600081526020016000815260200160001515815250600160008573ffffffffffffffffffffffffffffffffffffffff1673ffffffffffffffffffffffffffffffffffffffff16815260200190815260200160002060008201518160000160006101000a81548173ffffffffffffffffffffffffffffffffffffffff021916908373ffffffffffffffffffffffffffffffffffffffff1602179055506020820151816001015560408201518160020155606082015181600301556080820151816004015560a08201518160050160006101000a81548160ff0219169083151502179055509050503373ffffffffffffffffffffffffffffffffffffffff168373ffffffffffffffffffffffffffffffffffffffff167f8f204b0ecfffe166632e61e14d430dd7c49404debbde00c5d8356ed196ce5e5e8484604051610fc19291906128e4565b60405180910390a3505050565b6000803373ffffffffffffffffffffffffffffffffffffffff1673ffffffffffffffffffffffffffffffffffffffff16815260200190815260200160002060009054906101000a900460ff16611059576040517f08c379a0000000000000000000000000000000000000000000000000000000008152600401611050906127a0565b60405180910390fd5b600160008273ffffffffffffffffffffffffffffffffffffffff1673ffffffffffffffffffffffffffffffffffffffff168152602001908152602001600020600080820160006101000a81549073ffffffffffffffffffffffffffffffffffffffff021916905560018201600090556002820160009055600382016000905560048201600090556005820160006101000a81549060ff0219169055505050565b6000600260008373ffffffffffffffffffffffffffffffffffffffff1673ffffffffffffffffffffffffffffffffffffffff168152602001908152602001600020549050919050565b803373ffffffffffffffffffffffffffffffffffffffff16600160008373ffffffffffffffffffffffffffffffffffffffff1673ffffffffffffffffffffffffffffffffffffffff16815260200190815260200160002060000160009054906101000a900473ffffffffffffffffffffffffffffffffffffffff1673ffffffffffffffffffffffffffffffffffffffff1614611213576040517f08c379a000000000000000000000000000000000000000000000000000000000815260040161120a906129eb565b60405180910390fd5b600160008373ffffffffffffffffffffffffffffffffffffffff1673ffffffffffffffffffffffffffffffffffffffff16815260200190815260200160002060050160009054906101000a900460ff166112a2576040517f08c379a000000000000000000000000000000000000000000000000000000000815260040161129990612a57565b60405180910390fd5b6000600160008473ffffffffffffffffffffffffffffffffffffffff1673ffffffffffffffffffffffffffffffffffffffff168152602001908152602001600020600301819055506000600160008473ffffffffffffffffffffffffffffffffffffffff1673ffffffffffffffffffffffffffffffffffffffff168152602001908152602001600020600401819055506000600160008473ffffffffffffffffffffffffffffffffffffffff1673ffffffffffffffffffffffffffffffffffffffff16815260200190815260200160002060050160006101000a81548160ff0219169083151502179055503373ffffffffffffffffffffffffffffffffffffffff168273ffffffffffffffffffffffffffffffffffffffff167fa5c5d25028c154bafde38f2e1b63a731d3fd9b16e8be227d4e1a1a0891a78bda60405160405180910390a35050565b600073ffffffffffffffffffffffffffffffffffffffff168173ffffffffffffffffffffffffffffffffffffffff160361145a576040517f08c379a000000000000000000000000000000000000000000000000000000000815260040161145190612ac3565b60405180910390fd5b80600160008473ffffffffffffffffffffffffffffffffffffffff1673ffffffffffffffffffffffffffffffffffffffff16815260200190815260200160002060000160006101000a81548173ffffffffffffffffffffffffffffffffffffffff021916908373ffffffffffffffffffffffffffffffffffffffff1602179055508073ffffffffffffffffffffffffffffffffffffffff163373ffffffffffffffffffffffffffffffffffffffff168373ffffffffffffffffffffffffffffffffffffffff167f7ff4eaad1f964d5eb0b162c3ed927487bbce47ec6b9b98afb59e0d8364d337a160405160405180910390a45050565b60006020528060005260406000206000915054906101000a900460ff1681565b600073ffffffffffffffffffffffffffffffffffffffff16600160008373ffffffffffffffffffffffffffffffffffffffff1673ffffffffffffffffffffffffffffffffffffffff16815260200190815260200160002060000160009054906101000a900473ffffffffffffffffffffffffffffffffffffffff1673ffffffffffffffffffffffffffffffffffffffff1603611641576040517f08c379a000000000000000000000000000000000000000000000000000000000815260040161163890612b2f565b60405180910390fd5b600160008273ffffffffffffffffffffffffffffffffffffffff1673ffffffffffffffffffffffffffffffffffffffff16815260200190815260200160002060050160009054906101000a900460ff166116d0576040517f08c379a00000000000000000000000000000000000000000000000000000000081526004016116c790612bc1565b60405180910390fd5b3460026000600160008573ffffffffffffffffffffffffffffffffffffffff1673ffffffffffffffffffffffffffffffffffffffff16815260200190815260200160002060000160009054906101000a900473ffffffffffffffffffffffffffffffffffffffff1673ffffffffffffffffffffffffffffffffffffffff1673ffffffffffffffffffffffffffffffffffffffff16815260200190815260200160002060008282546117819190612be1565b925050819055503373ffffffffffffffffffffffffffffffffffffffff168173ffffffffffffffffffffffffffffffffffffffff167fc578616c82bd76d0d4e2c6e4d21c1e5511dfcac2a470e08822370f72605ca04034600160008673ffffffffffffffffffffffffffffffffffffffff1673ffffffffffffffffffffffffffffffffffffffff168152602001908152602001600020600401546040516118299291906128e4565b60405180910390a350565b600073ffffffffffffffffffffffffffffffffffffffff16600160008573ffffffffffffffffffffffffffffffffffffffff1673ffffffffffffffffffffffffffffffffffffffff16815260200190815260200160002060000160009054906101000a900473ffffffffffffffffffffffffffffffffffffffff1673ffffffffffffffffffffffffffffffffffffffff1603611905576040517f08c379a00000000000000000000000000000000000000000000000000000000081526004016118fc90612b2f565b60405180910390fd5b600160008473ffffffffffffffffffffffffffffffffffffffff1673ffffffffffffffffffffffffffffffffffffffff16815260200190815260200160002060050160009054906101000a900460ff1615611995576040517f08c379a000000000000000000000000000000000000000000000000000000000815260040161198c90612c61565b60405180910390fd5b81600160008573ffffffffffffffffffffffffffffffffffffffff1673ffffffffffffffffffffffffffffffffffffffff1681526020019081526020016000206003018190555080600160008573ffffffffffffffffffffffffffffffffffffffff1673ffffffffffffffffffffffffffffffffffffffff1681526020019081526020016000206004018190555060018060008573ffffffffffffffffffffffffffffffffffffffff1673ffffffffffffffffffffffffffffffffffffffff16815260200190815260200160002060050160006101000a81548160ff0219169083151502179055508273ffffffffffffffffffffffffffffffffffffffff167f1fd907342b91f785f4372ccb9a0dc9215f6d72324756f36d52cb5e93348255eb8383604051611ac59291906128e4565b60405180910390a2505050565b600073ffffffffffffffffffffffffffffffffffffffff16600160008573ffffffffffffffffffffffffffffffffffffffff1673ffffffffffffffffffffffffffffffffffffffff16815260200190815260200160002060000160009054906101000a900473ffffffffffffffffffffffffffffffffffffffff1673ffffffffffffffffffffffffffffffffffffffff1603611ba3576040517f08c379a0000000000000000000000000000000000000000000000000000000008152600401611b9a90612b2f565b60405180910390fd5b600160008473ffffffffffffffffffffffffffffffffffffffff1673ffffffffffffffffffffffffffffffffffffffff16815260200190815260200160002060050160009054906101000a900460ff16611c32576040517f08c379a0000000000000000000000000000000000000000000000000000000008152600401611c2990612a57565b60405180910390fd5b81600160008573ffffffffffffffffffffffffffffffffffffffff1673ffffffffffffffffffffffffffffffffffffffff1681526020019081526020016000206004016000828254611c849190612be1565b9250508190555080600160008573ffffffffffffffffffffffffffffffffffffffff1673ffffffffffffffffffffffffffffffffffffffff168152602001908152602001600020600301819055503460026000600160008773ffffffffffffffffffffffffffffffffffffffff1673ffffffffffffffffffffffffffffffffffffffff16815260200190815260200160002060000160009054906101000a900473ffffffffffffffffffffffffffffffffffffffff1673ffffffffffffffffffffffffffffffffffffffff1673ffffffffffffffffffffffffffffffffffffffff1681526020019081526020016000206000828254611d839190612be1565b925050819055503373ffffffffffffffffffffffffffffffffffffffff168373ffffffffffffffffffffffffffffffffffffffff167fc578616c82bd76d0d4e2c6e4d21c1e5511dfcac2a470e08822370f72605ca04034600160008873ffffffffffffffffffffffffffffffffffffffff1673ffffffffffffffffffffffffffffffffffffffff16815260200190815260200160002060040154604051611e2b9291906128e4565b60405180910390a3505050565b6000803373ffffffffffffffffffffffffffffffffffffffff1673ffffffffffffffffffffffffffffffffffffffff16815260200190815260200160002060009054906101000a900460ff16611ec3576040517f08c379a0000000000000000000000000000000000000000000000000000000008152600401611eba906127a0565b60405180910390fd5b806000808473ffffffffffffffffffffffffffffffffffffffff1673ffffffffffffffffffffffffffffffffffffffff16815260200190815260200160002060006101000a81548160ff0219169083151502179055508173ffffffffffffffffffffffffffffffffffffffff167f590f69937de0f94d7654f9f184089382f76863cad698392e7ec986c8371064da82604051611f5f9190612532565b60405180910390a25050565b600080fd5b6000819050919050565b611f8381611f70565b8114611f8e57600080fd5b50565b600081359050611fa081611f7a565b92915050565b600060208284031215611fbc57611fbb611f6b565b5b6000611fca84828501611f91565b91505092915050565b600073ffffffffffffffffffffffffffffffffffffffff82169050919050565b6000611ffe82611fd3565b9050919050565b61200e81611ff3565b811461201957600080fd5b50565b60008135905061202b81612005565b92915050565b60006020828403121561204757612046611f6b565b5b60006120558482850161201c565b91505092915050565b61206781611ff3565b82525050565b61207681611f70565b82525050565b60008115159050919050565b6120918161207c565b82525050565b600060c0820190506120ac600083018961205e565b6120b9602083018861206d565b6120c6604083018761206d565b6120d3606083018661206d565b6120e0608083018561206d565b6120ed60a0830184612088565b979650505050505050565b600060208201905061210d600083018461206d565b92915050565b600081519050919050565b600082825260208201905092915050565b60005b8381101561214d578082015181840152602081019050612132565b60008484015250505050565b6000601f19601f8301169050919050565b600061217582612113565b61217f818561211e565b935061218f81856020860161212f565b61219881612159565b840191505092915050565b600060208201905081810360008301526121bd818461216a565b905092915050565b600081519050919050565b600082825260208201905092915050565b6000819050602082019050919050565b6121fa81611ff3565b82525050565b600061220c83836121f1565b60208301905092915050565b6000602082019050919050565b6000612230826121c5565b61223a81856121d0565b9350612245836121e1565b8060005b8381101561227657815161225d8882612200565b975061226883612218565b925050600181019050612249565b5085935050505092915050565b600081519050919050565b600082825260208201905092915050565b6000819050602082019050919050565b6122b881611f70565b82525050565b60006122ca83836122af565b60208301905092915050565b6000602082019050919050565b60006122ee82612283565b6122f8818561228e565b93506123038361229f565b8060005b8381101561233457815161231b88826122be565b9750612326836122d6565b925050600181019050612307565b5085935050505092915050565b600081519050919050565b600082825260208201905092915050565b6000819050602082019050919050565b6123768161207c565b82525050565b6000612388838361236d565b60208301905092915050565b6000602082019050919050565b60006123ac82612341565b6123b6818561234c565b93506123c18361235d565b8060005b838110156123f25781516123d9888261237c565b97506123e483612394565b9250506001810190506123c5565b5085935050505092915050565b600060e0820190508181036000830152612419818a612225565b9050818103602083015261242d8189612225565b9050818103604083015261244181886122e3565b9050818103606083015261245581876122e3565b9050818103608083015261246981866122e3565b905081810360a083015261247d81856122e3565b905081810360c083015261249181846123a1565b905098975050505050505050565b6000806000606084860312156124b8576124b7611f6b565b5b60006124c68682870161201c565b93505060206124d786828701611f91565b92505060406124e886828701611f91565b9150509250925092565b6000806040838503121561250957612508611f6b565b5b60006125178582860161201c565b92505060206125288582860161201c565b9150509250929050565b60006020820190506125476000830184612088565b92915050565b6125568161207c565b811461256157600080fd5b50565b6000813590506125738161254d565b92915050565b600080604083850312156125905761258f611f6b565b5b600061259e8582860161201c565b92505060206125af85828601612564565b9150509250929050565b7f496e73756666696369656e742062616c616e6365000000000000000000000000600082015250565b60006125ef60148361211e565b91506125fa826125b9565b602082019050919050565b6000602082019050818103600083015261261e816125e2565b9050919050565b7f4e487b7100000000000000000000000000000000000000000000000000000000600052601160045260246000fd5b600061265f82611f70565b915061266a83611f70565b925082820390508181111561268257612681612625565b5b92915050565b7f4e487b7100000000000000000000000000000000000000000000000000000000600052604160045260246000fd5b7f4e487b7100000000000000000000000000000000000000000000000000000000600052603260045260246000fd5b60006126f182611f70565b91507fffffffffffffffffffffffffffffffffffffffffffffffffffffffffffffffff820361272357612722612625565b5b600182019050919050565b7f4f6e6c792061646d696e6973747261746f72732063616e20706572666f726d2060008201527f7468697320616374696f6e000000000000000000000000000000000000000000602082015250565b600061278a602b8361211e565b91506127958261272e565b604082019050919050565b600060208201905081810360008301526127b98161277d565b9050919050565b7f546f74616c2061726561206d7573742062652067726561746572207468616e2060008201527f7a65726f00000000000000000000000000000000000000000000000000000000602082015250565b600061281c60248361211e565b9150612827826127c0565b604082019050919050565b6000602082019050818103600083015261284b8161280f565b9050919050565b7f55736566756c20617265612063616e6e6f742065786365656420746f74616c2060008201527f6172656100000000000000000000000000000000000000000000000000000000602082015250565b60006128ae60248361211e565b91506128b982612852565b604082019050919050565b600060208201905081810360008301526128dd816128a1565b9050919050565b60006040820190506128f9600083018561206d565b612906602083018461206d565b9392505050565b7f50726f706572747920697320616c726561647920726567697374657265640000600082015250565b6000612943601e8361211e565b915061294e8261290d565b602082019050919050565b6000602082019050818103600083015261297281612936565b9050919050565b7f4f6e6c7920746865206f776e65722063616e20706572666f726d20746869732060008201527f616374696f6e0000000000000000000000000000000000000000000000000000602082015250565b60006129d560268361211e565b91506129e082612979565b604082019050919050565b60006020820190508181036000830152612a04816129c8565b9050919050565b7f50726f7065727479206973206e6f742072656e74656400000000000000000000600082015250565b6000612a4160168361211e565b9150612a4c82612a0b565b602082019050919050565b60006020820190508181036000830152612a7081612a34565b9050919050565b7f496e76616c6964206e6577206f776e6572206164647265737300000000000000600082015250565b6000612aad60198361211e565b9150612ab882612a77565b602082019050919050565b60006020820190508181036000830152612adc81612aa0565b9050919050565b7f50726f7065727479206973206e6f742072656769737465726564000000000000600082015250565b6000612b19601a8361211e565b9150612b2482612ae3565b602082019050919050565b60006020820190508181036000830152612b4881612b0c565b9050919050565b7f50726f7065727479206973206e6f7420617661696c61626c6520666f7220726560008201527f6e74000000000000000000000000000000000000000000000000000000000000602082015250565b6000612bab60228361211e565b9150612bb682612b4f565b604082019050919050565b60006020820190508181036000830152612bda81612b9e565b9050919050565b6000612bec82611f70565b9150612bf783611f70565b9250828201905080821115612c0f57612c0e612625565b5b92915050565b7f50726f706572747920697320616c72656164792072656e746564000000000000600082015250565b6000612c4b601a8361211e565b9150612c5682612c15565b602082019050919050565b60006020820190508181036000830152612c7a81612c3e565b905091905056fea264697066735822122089b73eae219cc3e90247e395d599a0ccbe4ba398611e03dda9646c8e212f28a064736f6c63430008130033",
  "immutableReferences": {},
  "source": "// SPDX-License-Identifier: MIT\r\npragma solidity >=0.4.22 <0.9.0;\r\n\r\ncontract EstateAgency {\r\n\r\n    struct Property {\r\n        address owner;\r\n        uint totalArea;\r\n        uint usefulArea;\r\n        uint rentAmount;\r\n        uint rentDuration;\r\n        bool rented;\r\n    }\r\n\r\n    mapping(address => bool) public administrators;\r\n    mapping(address => Property) public properties;\r\n    mapping(address => uint) public balances;\r\n\r\n    event PropertyRegistered(address indexed propertyAddress, address indexed owner, uint totalArea, uint usefulArea);\r\n    event RentOffered(address indexed propertyAddress, uint rentAmount, uint rentDuration);\r\n    event RentConfirmed(address indexed propertyAddress, address indexed renter, uint rentAmount, uint rentDuration);\r\n    event RentCancelled(address indexed propertyAddress, address indexed renter);\r\n    event FundsWithdrawn(address indexed receiver, uint amount);\r\n    event RoleChanged(address indexed user, bool isAdmin);\r\n    event PropertyAreasUpdated(address indexed propertyAddress, uint newTotalArea, uint newUsefulArea);\r\n    event PropertyOwnerChanged(address indexed propertyAddress, address indexed previousOwner, address indexed newOwner);\r\n\r\n    constructor(address admin1, address admin2, address owner1, address owner2)  {\r\n        administrators[admin1] = true;\r\n        administrators[admin2] = true;\r\n        administrators[owner1] = false;\r\n        administrators[owner2] = false;\r\n        balances[admin1] = 100;\r\n        balances[admin2] = 100;\r\n        balances[owner1] = 100;\r\n        balances[owner2] = 100;\r\n    }\r\n\r\n\r\n    modifier onlyAdmin() {\r\n        require(administrators[msg.sender], \"Only administrators can perform this action\");\r\n        _;\r\n    }\r\n\r\n    modifier onlyOwner(address propertyAddress) {\r\n        require(properties[propertyAddress].owner == msg.sender, \"Only the owner can perform this action\");\r\n        _;\r\n    }\r\n\r\n\r\n    function checkContract() public pure returns (string memory) {\r\n        return \"Contract is working!\";\r\n    }\r\n\r\n    function registerProperty(address propertyAddress, uint totalArea, uint usefulArea) public onlyAdmin {\r\n        require(properties[propertyAddress].owner == address(0), \"Property is already registered\");\r\n        properties[propertyAddress] = Property(msg.sender, totalArea, usefulArea, 0, 0, false);\r\n        emit PropertyRegistered(propertyAddress, msg.sender, totalArea, usefulArea);\r\n    }\r\n\r\n    function offerRent(address propertyAddress, uint rentAmount, uint rentDuration) public {\r\n        require(properties[propertyAddress].owner != address(0), \"Property is not registered\");\r\n        require(!properties[propertyAddress].rented, \"Property is already rented\");\r\n        properties[propertyAddress].rentAmount = rentAmount;\r\n        properties[propertyAddress].rentDuration = rentDuration;\r\n        properties[propertyAddress].rented = true;\r\n        emit RentOffered(propertyAddress, rentAmount, rentDuration);\r\n    }\r\n\r\n    function confirmRent(address propertyAddress) public payable {\r\n        require(properties[propertyAddress].owner != address(0), \"Property is not registered\");\r\n        require(properties[propertyAddress].rented, \"Property is not available for rent\");\r\n        balances[properties[propertyAddress].owner] += msg.value;\r\n        emit RentConfirmed(propertyAddress, msg.sender, msg.value, properties[propertyAddress].rentDuration);\r\n    }\r\n\r\n    function cancelRentOffer(address propertyAddress) public onlyOwner(propertyAddress) {\r\n        require(properties[propertyAddress].rented, \"Property is not rented\");\r\n        properties[propertyAddress].rentAmount = 0;\r\n        properties[propertyAddress].rentDuration = 0;\r\n        properties[propertyAddress].rented = false;\r\n        emit RentCancelled(propertyAddress, msg.sender);\r\n    }\r\n\r\n    function withdrawFunds(uint amount) public {\r\n        require(balances[msg.sender] >= amount, \"Insufficient balance\");\r\n        balances[msg.sender] -= amount;\r\n        address payable receiver = payable(msg.sender);\r\n        receiver.transfer(amount);\r\n        emit FundsWithdrawn(msg.sender, amount);\r\n    }\r\n\r\n    function changeUserRole(address user, bool isAdmin) public onlyAdmin {\r\n        administrators[user] = isAdmin;\r\n        emit RoleChanged(user, isAdmin);\r\n    }\r\n\r\n    // \r\n    function transferOwnership(address propertyAddress, address newOwner) public {\r\n        require(newOwner != address(0), \"Invalid new owner address\");\r\n        properties[propertyAddress].owner = newOwner;\r\n        emit PropertyOwnerChanged(propertyAddress, msg.sender, newOwner);\r\n    }\r\n\r\n    function extendRent(address propertyAddress, uint additionalRentDuration, uint newRentAmount) public payable {\r\n        require(properties[propertyAddress].owner != address(0), \"Property is not registered\");\r\n        require(properties[propertyAddress].rented, \"Property is not rented\");\r\n\r\n        properties[propertyAddress].rentDuration += additionalRentDuration;\r\n        properties[propertyAddress].rentAmount = newRentAmount;\r\n\r\n        //         \r\n        balances[properties[propertyAddress].owner] += msg.value;\r\n\r\n        emit RentConfirmed(propertyAddress, msg.sender, msg.value, properties[propertyAddress].rentDuration);\r\n    }\r\n\r\n    function removeProperty(address propertyAddress) public onlyAdmin {\r\n        delete properties[propertyAddress];\r\n    }\r\n\r\n    function updatePropertyAreas(address propertyAddress, uint newTotalArea, uint newUsefulArea) public onlyAdmin {\r\n        require(newTotalArea > 0, \"Total area must be greater than zero\");\r\n        require(newUsefulArea <= newTotalArea, \"Useful area cannot exceed total area\");\r\n\r\n        Property storage property = properties[propertyAddress];\r\n        property.totalArea = newTotalArea;\r\n        property.usefulArea = newUsefulArea;\r\n\r\n        emit PropertyAreasUpdated(propertyAddress, newTotalArea, newUsefulArea);\r\n    }\r\n\r\n    function checkBalance(address account) public view returns (uint) {\r\n        return balances[account];\r\n    }\r\n\r\n    //\r\n    function getAllProperties() public view returns (address[] memory, address[] memory, uint[] memory, uint[] memory, uint[] memory, uint[] memory, bool[] memory) {\r\n        uint length = address(this).balance;\r\n        address[] memory propertyAddresses = new address[](length);\r\n        address[] memory owners = new address[](length);\r\n        uint[] memory totalAreas = new uint[](length);\r\n        uint[] memory usefulAreas = new uint[](length);\r\n        uint[] memory rentAmounts = new uint[](length);\r\n        uint[] memory rentDurations = new uint[](length);\r\n        bool[] memory rentedStatuses = new bool[](length);\r\n\r\n        uint index = 0;\r\n        for (uint i = 0; i < length; i++) {\r\n            if (properties[propertyAddresses[i]].owner != address(0)) {\r\n                Property storage property = properties[propertyAddresses[i]];\r\n                propertyAddresses[index] = propertyAddresses[i];\r\n                owners[index] = property.owner;\r\n                totalAreas[index] = property.totalArea;\r\n                usefulAreas[index] = property.usefulArea;\r\n                rentAmounts[index] = property.rentAmount;\r\n                rentDurations[index] = property.rentDuration;\r\n                rentedStatuses[index] = property.rented;\r\n                index++;\r\n            }\r\n        }\r\n\r\n        return (propertyAddresses, owners, totalAreas, usefulAreas, rentAmounts, rentDurations, rentedStatuses);\r\n    }\r\n}",
  "sourcePath": "C:\\Users\\catsa\\WebstormProjects\\untitled\\contracts\\EstateAgency.sol",
  "compiler": {
    "name": "solc",
    "version": "0.8.19+commit.7dd6d404.Emscripten.clang"
  },
  "schemaVersion": "3.4.16",
  "updatedAt": "2024-05-14T16:27:13.100Z",
  "networkType": "ethereum",
  "devdoc": {
    "kind": "dev",
    "methods": {},
    "version": 1
  },
  "userdoc": {
    "kind": "user",
    "methods": {},
    "version": 1
  }
}